:100000006FC080116FC0C0126FC000186FC0401960
:100010006FC0801A6FC060266FC0802C6FC0E0393F
:100020006FC0A03C6FC020496FC0E04B6FC0C06D77
:100030006FC0C06F6FC0C0746FC000766FC0407774
:100040006FC0701C6FC0301F6FC0F0216FC0B02434
:100050006FC0702B6FC0302E6FC0F0306FC0F030AB
:100060006FC090326FC090346FC0D0356FC0503ABF
:100070006FC0B03E6FC0B0406FC0B0446FC0304979
:0C0080006F00E0026FC0305D6FF09FF772
:10008C0009CA8322050023A055007116110591059C
:10009C006DFA828011C623A005007116910565FECC
:1000AC00828017D5010013052572970500109385E2
:1000BC00A5F417060000130626F4D937179503008C
:1000CC00130585F397150020938505F3171600008B
:1000DC00130686F2753717D501001305E5449725ED
:1000EC000020938565F1170600001306E61A493FB8
:1000FC00972500209385451A1736000013064648AD
:10010C00513F17810020130121DF9721002093819B
:08011C00A118EFD0A00101A021
:10C000006F0080116F00C0126F0000186F004019A0
:10C010006F00801A6F0060266F00802C6F00E0397F
:10C020006F00A03C6F0020496F00E04B6F00C06DB7
:10C030006F00C06F6F00C0746F0000766F004077B4
:10C040006F00701C6F00301F6F00F0216F00B02474
:10C050006F00702B6F00302E6F00F0306F00F030EB
:10C060006F0090326F0090346F00D0356F00503AFF
:10C070006F00B03E6F00B0406F00B0446F003049B9
:0CC080006F00E0026F00305D6F309FF732
:10C08C0009CA8322050023A05500711611059105DC
:10C09C006DFA828011C623A005007116910565FE0C
:10C0AC00828017150100130525729745FF0F9385A4
:10C0BC00A5F41746FFFF130626F4D9371715010010
:10C0CC00130585469765FF1F938505F31746FFFFFC
:10C0DC001306861C75379765FF1F9385E51B17762E
:10C0EC00FFFF1306E6497D3717C1FF1F1301C1E09F
:10C0FC009761FF1F9381411AEF10400301A00000CC
:0CC10C0000000000415050484541440034
:10C1180041113EC6F3277040918B99C373707240EA
:10C12800B247410173002030397106DE16DC1ADA95
:10C138001ED82AD62ED432D236D03ACE3ECC42CAD7
:10C1480046C872C676C47AC27EC0F327404091C7FB
:10C158000545EF40201773504040F250E2525253C9
:10C16800C2533255A255125682567247E247524878
:10C17800C248324EA24E124F824F216173002030C6
:10C1880041113EC6F3272040858B99C373F02040A8
:10C19800B24741017300203041113EC6F3273040B9
:10C1A800858B99C373F03040B2474101730020304A
:10C1B8005D7186C696C49AC29EC022DE2ADC2EDA3B
:10C1C80032D836D63AD43ED242D046CE72CC76CA8F
:10C1D8007AC87EC6F3275060A18B91C70545EF400A
:10C1E800600E73705460F3275060C18B99C37370ED
:10C1F8005860F327506093F7070281CB0545EF405D
:10C20800600C9307000273B05760F327506093F7F0
:10C21800072089C79307002073B05760F327506041
:10C2280093F7074089C79307004073B05760F32717
:10C23800506005641397470113040480635707008F
:10C248000545EF402008733054607254B640A6424A
:10C25800164386436255D2554256B25622579257D4
:10C268000258F248624ED24E424FB24F616173009B
:10C27800203041113EC6F3275060858B99C373F077
:10C288005060F3275060898B99C373705160F3270E
:10C298005060918B99C373705260F327506093F785
:10C2A800070489C79307000473B05760F3275060E9
:10C2B80093F7070889C79307000873B05760F327F7
:10C2C800506093F7071089C79307001073B0576041
:10C2D800B2474101730020305D7186C696C49AC288
:10C2E8009EC022DE2ADC2EDA32D836D63AD43ED2A6
:10C2F80042D046CE72CC76CA7AC87EC6F32760543E
:10C3080093F7072089C79307002073B06754F32772
:10C318006054C18B99C373706854F3276054898B38
:10C3280091C7737061541145EF30D079F327605489
:10C33800918B91C7737062540D45EF30B078F32735
:10C348006054858B91C773F060540945EF3090773E
:10C35800F3276054139707012164635907001D45AB
:10C36800EF3050767330545473306454F32760546C
:10C37800A18B99C373706454F327605493F70740F3
:10C3880089C79307004073B067547254B640A642F9
:10C39800164386436255D2554256B2562257925793
:10C3A8000258F248624ED24E424FB24F616173005A
:10C3B800203041113EC6F3276058C18B99C3737072
:10C3C8006858F3276058858B99C373F06058F32732
:10C3D8006058A18B99C373706458B24741017300C8
:10C3E8002030397106DE16DC1ADA1ED82AD62ED489
:10C3F80032D236D03ACE3ECC42CA46C872C676C48D
:10C408007AC27EC0F327305493F7070289C793078F
:10C41800000273B03754F3273054858BB1CBB7077C
:10C42800003003D7071C938701000A072390E70011
:10C43800370700301307271C035707000A07239103
:10C44800E700370700301307471C035707000A07A0
:10C458002392E700370700301307A7150357070093
:10C468002393E700EF30B059EF20A04073F0305429
:10C47800F3273054A18B99C373703454F327305485
:10C48800C18B99C373703854F250E2525253C2535D
:10C498003255A255125682567247E2475248C24850
:10C4A800324EA24E124F824F21617300203041114B
:10C4B8003EC6F3273058A18B99C373703458F327BD
:10C4C8003058858B99C373F03058F3273058C18B97
:10C4D80099C373703858B2474101730020301D71F9
:10C4E80086CE96CC9ACA9EC8A2C6A6C4AAC2AEC018
:10C4F80032DE36DC3ADA3ED842D646D44AD272D058
:10C5080076CE7ACC7ECAF3275050858BBDC303A75D
:10C51800810385476313F7049386611D83C706006B
:10C5280037070030A545130767421385611913863D
:10C53800411963E2F50885072380F600B707003044
:10C54800938787420357070083D70700BA97C20724
:10C55800C1872310F5002310F6009307A0487390B5
:10C56800375073F041509307101073B0575073E071
:10C578004150F3275050898B89CB737046509307ED
:10C58800202073B05750736046503644F640E64258
:10C598005643C643A644164586457256E256525738
:10C5A800C2573258A2581259025EF24E624FD24F09
:10C5B800256173002030B70600308355070083D704
:10C5C80086421384E11813892119AE9793950701C0
:10C5D800C1852310B500035506002310B6009384C7
:10C5E8000119898F2310F4008357070003D7864267
:10C5F800B70600309386A62583D60600C2074207F1
:10C608004187C187BA97958FC207C1833707003022
:10C618002310F9008356E720056713070711C206A0
:10C62800C1866359D70C0567130757E32390E400C5
:10C638006177BA979305E1004D452317F100EF8024
:10C64800C065031709008397040063C6E700B307B2
:10C65800F0406353F7029305E100554523170100A5
:10C66800EF8000728357E1009305E1005545850787
:10C678002317F100EF8060628357040005671307F2
:10C6880057E3BA97C2070967C1831307A7C613847C
:10C69800511D6376F7029305E10051452317010008
:10C6A800EF80006E8357E1009305E100514585074F
:10C6B8002317F100EF80605E91472300F400834761
:10C6C8000400E38C07E8FD172300F4003707003067
:10C6D800B70700309387A7251307874283D707003A
:10C6E80003570700998FC207C18737070030231304
:10C6F800F742A5B5E17713C7F7FF2390E4001DBF04
:10C7080041113EC6F3270066858B99C373F0006616
:10C71800F3270067858B99C373F00067B24741011F
:10C728007300203041113EC6F327100A918B99C33C
:10C738007370120AF327100A858B99C373F0100AD5
:10C74800F327100B858B99C373F0100BF327100B8D
:10C75800898B99C37370110BF327100C858B99C3C0
:10C7680073F0100CF327100C898B99C37370110C9C
:10C77800B24741017300203041113EC6F327000C37
:10C78800858B99C373F0000CB247410173002030C8
:10C7980041113EC6F327000E858B99C373F0000E36
:10C7A800B2474101730020305D7186C696C49AC2B3
:10C7B8009EC022DE26DC2ADA2ED832D636D43AD2E9
:10C7C8003ED042CE46CC72CA76C87AC67EC4F3271B
:10C7D8001044898B63810716EF40304A8967938537
:10C7E8008120938707A09CC123A6012023A80120AC
:10C7F800C147130700021384C1220545DCC598C947
:10C808002390F502C0CD23A00122EF409063054597
:10C81800EF405070EF40D0099307000473A00766FB
:10C82800F327006693F70704E5FF83576400138432
:10C83800416D83A6C1032396F102B707003099071B
:10C8480083D7070005472310F4008147637AD70090
:10C85800B70700309387272183D70700C207C1870E
:10C868002316F400B707003003D7E7209387E720A3
:10C8780083D707004207418763540700B307F04096
:10C88800C207C1879384A1122390F4009307004044
:10C8980073A057541387A1188357070081C7FD1742
:10C8A8002310F70099476396F608EF10F013839664
:10C8B80004000567B7070030130787889387C717F1
:10C8C8006342D70A83D70700C207C187634AF008C3
:10C8D800231CF40603178407B7070030239EE716C6
:10C8E8008396040005671307A7AA634CD708156742
:10C8F800B7070030130707C12390E70CB7070030CC
:10C908001307C0142391E70C956737070030938706
:10C91800D7A02310F7149306600E370700302311B1
:10C92800D714370700302310F70EB70700302391CC
:10C93800D70E737011447254B640A642164386430C
:10C94800E2545255C2553256A2561257825772486F
:10C95800E248524EC24E324FA24F616173002030FE
:10C96800FD17BDB705671307F710E355D7F683D74B
:10C97800070013073003C207C187E34BF7F48507A5
:10C9880081BFFD779387B7AAB697C207C183636A49
:10C99800F7021567B707003055072390E70CB7076C
:10C9A80000301307F0242391E70C95673707003010
:10C9B800938707C12310F7149306C0143707003074
:10C9C800B9BF8D6793873755E3D5D7F61967B7078A
:10C9D8000030130707822390E70CB70700301307CE
:10C9E80020532391E70C956737070030938747F169
:10C9F8002310F71493067020370700300DB7411144
:10CA08003EC6F3273021918B99C373703221F327E7
:10CA18003021898B99C373703121F3273021858B9D
:10CA280099C373F03021B24741017300203041119E
:10CA38003EC6F3272022918B99C373702222F327D5
:10CA48002022898B99C373702122F3272022858B9A
:10CA580099C373F02022B24741017300203041117D
:10CA68003EC6F3272023918B99C373702223F327A3
:10CA78002023898B99C373702123F3272023858B67
:10CA880099C373F02023B2474101730020303971F4
:10CA980006DE16DC1ADA1ED82AD62ED432D236D0C2
:10CAA8003ACE3ECC42CA46C872C676C47AC27EC066
:10CAB800F3273024918B99C373703224F3273024E1
:10CAC800898B99C373703124F3273024858B89C7E8
:10CAD800EF40605D73F03024F250E2525253C2537B
:10CAE8003255A255125682567247E2475248C248FA
:10CAF800324EA24E124F824F2161730020304111F5
:10CB08003EC6F3273025918B99C373703225F327DE
:10CB18003025898B99C373703125F3273025858B90
:10CB280099C373F03025B247410173002030411199
:10CB38003EC6F3272026918B99C373702226F327CC
:10CB48002026898B99C373702126F3272026858B8D
:10CB580099C373F02026B247410173002030730057
:10CB6800203041113EC6F327004693F7070489C7D2
:10CB78009307000473B00746B247410173002030A1
:10CB880041113EC6F3270014898B99C373700114B1
:10CB9800F3270014858B99C373F00014B247410141
:10CBA8007300203041113EC6F3272019A18B99C389
:10CBB80073702419B247410173002030397106DEC1
:10CBC80016DC1ADA1ED82AD62ED432D236D03ACE6D
:10CBD8003ECC42CA46C872C676C47AC27EC0EF70DE
:10CBE8009041F250E2525253C2533255A255125656
:10CBF80082567247E2475248C248324EA24E124FFE
:10CC0800824F216173002030397106DE16DC1ADA92
:10CC18001ED82AD62ED432D236D03ACE3ECC42CAEC
:10CC280046C872C676C47AC27EC0993FF250E252B4
:10CC38005253C2533255A255125682567247E24792
:10CC48005248C248324EA24E124F824F21617300A1
:10CC5800203041113EC6F3270015898B99C37370A4
:10CC68000115F3270015858B99C373F00015B2479A
:10CC780041017300203041113EC6F3270013A18BF8
:10CC88008DCBF3271013858B99C373F01013F327FB
:10CC98001013898B99C373701113F3272013A18B79
:10CCA80099C373702413F3271013918B99C373706E
:10CCB8001213B247410173002030397106DE16DCC9
:10CCC8001ADA1ED82AD62ED432D236D03ACE3ECC54
:10CCD80042CA46C872C676C47AC27EC0EF701029AE
:10CCE800F250E2525253C2533255A255125682564E
:10CCF8007247E2475248C248324EA24E124F824F04
:10CD08002161730020305D7186C696C49AC29EC0A8
:10CD180022DE2ADC2EDA32D836D63AD43ED242D0B7
:10CD280046CE72CC76CA7AC87EC6F3274020918B4D
:10CD3800014489CB73704220736002200145EF5093
:10CD4800E0580544F327402093F70707B1CFF327AE
:10CD5800402093F7070491CF9307000473B047204E
:10CD680073600220C167739027200145EF50005679
:10CD78000544F327402093F7070281CB930700026D
:10CD880073B047200145EF506054F3274020C18B12
:10CD980081CF7370482073600220C1677390272089
:10CDA8000145EF50A0520544F3274020A18B89CBC1
:10CDB80073704420C167739027200145EF500051DC
:10CDC800F327402093F7074099CB9307004073B0AF
:10CDD8004720C167739027200145EF50204F7327E4
:10CDE80040208567931647019387078063DA06001A
:10CDF80073B04720C167739027200145EF50004D5D
:10CE0800F3274020898B89CB0145EF50204C737064
:10CE18004120C1677390272019E4F3274020858BB0
:10CE280099C3EF50A04C7254B640A64216438643AD
:10CE38006255D2554256B256225792570258F24876
:10CE4800624ED24E424FB24F616173002030732759
:10CE580010349377F70F2382F11C0D8B8D46631ADC
:10CE6800D7009107739017349307000473B0073CF9
:10CE780001A08907C5BF2387011C239D0114239C9A
:10CE88000114A386011C2386011C239B0114239AE9
:10CE98000114A385011C239901142385011CA38473
:10CEA800011C239801142397011423960114239538
:10CEB8000114239401142393011423920114239140
:10CEC800011423900114239F0112239E0112239D14
:10CED8000112239C0112239B0112239A0112239908
:10CEE800011223980112239701122384011CA383A2
:10CEF800011C2383011C23960112A382011C82803A
:10CF080073602806736024067360220673D0230AB0
:10CF18008567938717607390070A9387010073905A
:10CF2800470A9307001073A0070A7360040A736026
:10CF3800010AF327706093E7070273907760F3277D
:10CF4800706093E7074073907760F327706093E70A
:10CF58001700739077608280011105668145370557
:10CF6800003006CEEFB0C042EF30906A17F50000EF
:10CF780013054500EF70D0106800EF70304B054680
:10CF880068008145EF70904B85456800EF70D0339D
:10CF9800EF70E04BEF10307CEF10601AEF20902A12
:10CFA800EF308023C93DEF30000BEF20102BEF202E
:10CFB800B02CEF50C01FEF80D0600145EF90D070CB
:10CFC8000145EF90B05D0145EFA01069EF60202C9E
:10CFD800EFB0201BF24005618280411106C6EF3098
:10CFE800204BEF30800BEF308035EF30A071EF3001
:10CFF800C057EF208000EF20300583A7410589E75F
:10D00800EF80C015EF70F074B240014541016F60C8
:10D01800601B411106C6EFA00054B240410141A671
:10D02800411106C6EF905034B240054541016F608A
:10D038006019411106C6EF20406CEF70E026EF70D2
:10D048006020EF70A02CEF70A032EF70606309458C
:10D05800EF604017B24041016FA03076411106C61B
:10D06800EF50A05CB24041016F502036B7970300E3
:10D0780073A0474EB717002073A0574E93070020A0
:10D0880073A0174E9307001073A0174E82804111AA
:10D0980006C6EF40E005EF40E028B7070010FD178F
:10D0A80073900708EF402007EF408000EF40200B07
:10D0B800EF406014EF40202CEF40201EEF4040531B
:10D0C800EF70805817B500001305453DEF60F06319
:10D0D80081450145EF60F06F81450545EF60706F50
:10D0E8007137930710277390074473E01044930730
:10D0F800000B73A00746735031417350F0407350D2
:10D1080002417350124173D0214173D032417350A0
:10D11800804173D0904173D0C04173600430EF30C8
:10D12800906AEF50000473600850B2404101828059
:10D13800797106D622D426D24AD04ECE52CC56CABF
:10D148005AC85EC673E0100073E000009307000938
:10D158007390174C930720067390174CB167739020
:10D168005730B7870020938707F023A4F10095670D
:10D178009387575573900748896793872722739039
:10D18800074801000100C93B19379D3BEF402020AB
:10D19800930620051306700A85451145EF4040297E
:10D1A8009306200A1306E00F9305200B1305E00FE2
:10D1B800EF40002885461306C003930510051305A4
:10D1C800B003EF40E02699461306600A9945130517
:10D1D800600AEF40E025916773A0A75873A0A75491
:10D1E800F327A05413971701E34C07FEF327A05821
:10D1F80013971701E34C07FEB707003003D7E70082
:10D208009387416D2398E7003707003021070357BC
:10D218000700239EE7003707003029070357070058
:10D22800239FE70037070030310703570700239093
:10D23800E7029307000473A0F754B70700301307F9
:10D248004002239AE742B7070030239BE742138442
:10D25800C11E9384B11E1389A11E9389911E138A3E
:10D26800811E938A711E138B611E938B511E8347F7
:10D27800040081C79D332386011E83C7040081C72C
:10D28800493BA385011E8347090081C7513B23857C
:10D29800011E83C7090081C7693BA384011E834718
:10D2A8000A0081C7653B2384011E83C70A0099C30E
:10D2B800A383011E83470B0099C32383011E83C7E1
:10D2C8000B0099C3A382011E83C7411E99C3238201
:10D2D800011E83C7311EC1DFA381011E49BF01455D
:10D2E80082809307002073B0E754E577938707801F
:10D2F800370700302310F7109305E0513707003047
:10D308002311B7101966370700302312C710E976C2
:10D31800370700302313D710370700302310F712D0
:10D32800B70700302391B712B70700302392C7120E
:10D33800B70700302393D7128280938701251307FC
:10D34800F01623A0070023A2070023A6070023A89E
:10D35800070098C782809387C1231307F01623A07C
:10D36800070023A2070023A6070023A8070098C7E1
:10D378008280411106C6D137F93F9387412623A8F9
:10D388000700054723A0070023A2070023A40700DE
:10D3980023A607002388E700B24041018280B7072F
:10D3A800003083D6E7209387E72083D70700C2069B
:10D3B800C1861387C10063D40600B307F040C207D3
:10D3C800C18797B600009386A6472310F7003686D4
:10D3D800814721458355070003980600C205C1858A
:10D3E800E3CE0543850793F7F70F8906E394A7FE75
:10D3F80001469D479D468607860617B70000130716
:10D40800273FB305D7003E9783950500031707000C
:10D41800056E130EAEC90D8F3307C70209631303D8
:10D42800F34BF578938808C83D872E979385812715
:10D4380098C917B700001307A73A3305D7003E97D6
:10D448000315050003170700098F3307C7023D8737
:10D458002A97D8C917B700001307873B3305D700A9
:10D468003E970315050003170700098F3307C70206
:10D478003D872A9798CD17B70000130767383305FB
:10D48800D7003E970315050003170700098F3307D8
:10D49800C7023D872A97D8CD17B700001307473131
:10D4A8003305D7003E970315050003170700098FBA
:10D4B8003307C7023D872A9798D117B7000013078B
:10D4C800272E3305D7003E970315050003170700DD
:10D4D800098F3307C7023D872A97D8D117B70000AD
:10D4E8001307072F3305D7003E97031505000317C9
:10D4F800070023A4C503098F3307C7023D872A976E
:10D50800D8D517B700001307A72B3305D7003E97C8
:10D518000315050003170700098F3307C7023D8766
:10D528002A9798D917B70000130787263305D7001D
:10D538003E97031505000317070023AA650223ACCD
:10D548001503098F3307C7023D872A97D8DD17B718
:10D5580000001307E7223305D7003E97031505009F
:10D5680003170700098F3307C7023D872A97B8C1F9
:10D5780017B700001307C71F3305D7003E970315D9
:10D58800050003170700098F3307C7023D872A974D
:10D59800F8C117B700001307A71C3305D7003E973B
:10D5A8000315050003170700098F3307C7023D87D6
:10D5B8002A97B8C517B70000130787193305D7008E
:10D5C8003E970315050003170700098F3307C702A5
:10D5D8003D872A97F8C517B7000013076716330564
:10D5E800D7003E970315050003170700098F330777
:10D5F800C7023D872A97B8C917B700001307471213
:10D608003305D7003E970315050003170700098F58
:10D618003307C7023D872A97F8C9B8CDF8CDB8D1E6
:10D6280017B700001307C7103305D7003E97031537
:10D63800050003170700098F3307C7023D872A979C
:10D64800F8D1B8D517B700001307870C3305D700F2
:10D658003E970315050003170700098F3307C70214
:10D668003D872A97F8D517B70000130767093305D0
:10D67800D7003E970315050003170700098F3307E6
:10D68800C7023D872A97B8D917B70000130747067E
:10D698003305D7003E970315050003170700098FC8
:10D6A8003307C7023D872A97F8D917B70000130731
:10D6B80027033305D7003E97031505000317070016
:10D6C800098F3307C7023D872A97B8DD17B70000CF
:10D6D800130707003305D7003E9703150500031706
:10D6E8000700098F3307C7023D872A97F8DD17B768
:10D6F80000001307E7FC3305D7003E970318050021
:10D70800031507001387812F330505413305C5022B
:10D718003D85429508C317B50000130565F9330820
:10D72800D5003E950318080003150500330505418B
:10D738003305C5023D85429517B80000130848F621
:10D74800B30ED8003E98839E0E000318080048C305
:10D758003308D8413308C8021358F840769897BE62
:10D768000000938EEEF2338FDE00BE9E031F0F0083
:10D77800839E0E0023240701B38EEE41B38ECE02A2
:10D7880093DEFE40FA9E2326D7012328D70197BEB1
:10D798000000938EEEEE338FDE00BE9E031F0F0057
:10D7A800839E0E00B38EEE41B38ECE0293DEFE4012
:10D7B800FA9E232AD70197BE0000938E6EEB338F13
:10D7C800DE00BE9E031F0F00839E0E00B38EEE4147
:10D7D800B38ECE0293DEFE40FA9E232CD70197BE6D
:10D7E8000000938EEEE7338FDE00BE9E031F0F000E
:10D7F800839E0E00B38EEE41B38ECE0293DEFE40C2
:10D80800FA9E232ED70197BE0000938E6EE4338FC5
:10D81800DE00BE9E031F0F00839E0E00B38EEE41F6
:10D82800B38ECE0293DEFE40FA9E2320D70397BE26
:10D838000000938EEEE0338FDE00BE9E031F0F00C4
:10D84800839E0E00B38EEE41B38ECE0293DEFE4071
:10D85800FA9E2322D70397BE0000938E6EDD338F86
:10D86800DE00BE9E031F0F00839E0E00B38EEE41A6
:10D87800B38ECE0293DEFE40FA9E2324D70397BED2
:10D888000000938EEED9338FDE00BE9E031F0F007B
:10D89800839E0E0048D723280703B38EEE41B38E2C
:10D8A800CE0293DEFE40FA9E232AD703232CD70309
:10D8B80097BE0000938ECED5338FDE00BE9E031F29
:10D8C8000F00839E0E00B38EEE41B38ECE0293DE20
:10D8D800FE40FA9E232ED70397BE0000938E4ED2A9
:10D8E800338FDE00BE9E031F0F00839E0E00B38E93
:10D8F800EE41B38ECE0293DEFE40FA9E2320D7057A
:10D9080097BE0000938ECECE338FDE00BE9E031FDF
:10D918000F00839E0E00B38EEE41B38ECE0293DECF
:10D92800FE40FA9E2322D70597BE0000938E4ECB69
:10D93800338FDE00BE9E031F0F00839E0E00B38E42
:10D94800EE41B38ECE0293DEFE40FA9E2324D70525
:10D9580097BE0000938ECEC7338FDE00BE9E031F96
:10D968000F00839E0E00B38EEE41B38ECE0293DE7F
:10D97800FE40FA9E2326D70597BE0000938E4EC41C
:10D98800338FDE00BE9E031F0F00839E0E00B38EF2
:10D99800EE41B38ECE0293DEFE40FA9E2328D705D1
:10D9A80097BE0000938ECEC0338FDE00BE9E031F4D
:10D9B8000F00839E0E0068CB232C0705B38EEE4123
:10D9C800B38ECE0293DEFE40FA9E232ED705232087
:10D9D800D70797BE0000938EAEBC338FDE00BE9E85
:10D9E800031F0F00839E0E00B38EEE41B38ECE024E
:10D9F80093DEFE40FA9E2322D70797BE0000938E3F
:10DA08002EB9338FDE00BE9E031F0F00839E0E00CB
:10DA1800B38EEE41B38ECE0293DEFE40FA9E2324EF
:10DA2800D70797BE0000938EAEB5338FDE00BE9E3B
:10DA3800031F0F00839E0E00B38EEE41B38ECE02FD
:10DA480093DEFE40FA9E2326D70797BE0000938EEA
:10DA58002EB2338FDE00BE9E031F0F00839E0E0082
:10DA6800B38EEE41B38ECE0293DEFE40FA9E23289B
:10DA7800D70797BE0000938EAEAE338FDE00BE9EF2
:10DA8800031F0F00839E0E00B38EEE41B38ECE02AD
:10DA980093DEFE40FA9E232AD70797BE0000938E96
:10DAA8002EAB338FDE00BE9E031F0F00839E0E0039
:10DAB800B38EEE41B38ECE0293DEFE40FA9E232C47
:10DAC800D70768DF138581372320050117B80000C1
:10DAD800130808A6B30ED8003E98839E0E000318BC
:10DAE80008003308D8413308C8021358F84076981C
:10DAF8002322050117B80000130888A2B30ED80026
:10DB08003E98839E0E00031808003308D841330856
:10DB1800C8021358F84076982324050117B8000066
:10DB2800130808A2B30ED8003E98839E0E0003186F
:10DB380008003308D8413308C8021358F8407698CB
:10DB4800232605012328050117B800001308489C5F
:10DB5800B30ED8003E98839E0E00031808003308C1
:10DB6800D8413308C8021358F84076982322050391
:10DB780017B800001308C898B30ED8003E98839EC3
:10DB88000E00031808003308D8413308C802135898
:10DB9800F84076982324050317B800001308489521
:10DBA800B30ED8003E98839E0E0003180800330871
:10DBB800D8413308C8021358F8407698232605033D
:10DBC8001168130848592328050311681308880E9B
:10DBD800232A050311681308A8F1232C050317B895
:10DBE80000001308E8C3B30ED8003E98839E0E00C9
:10DBF800031808003308D8413308C8021358F840FE
:10DC0800769897BE0000938EAEC2F696BE9E23A667
:10DC1800050183970E0003980600B3860741B38673
:10DC2800C6028587BD86C29613581840B387074138
:10DC3800B387C70294C1BD87C297DCC194C5944914
:10DC4800B7070030C206C1862399D710D449B70751
:10DC58000030C206C1862399D712944DB707003009
:10DC6800C206C1862391D710D44DB7070030C2062B
:10DC7800C1862391D7129451B7070030C206C186D6
:10DC88002390D710D451B7070030C206C18623901D
:10DC9800D712B70700302397C73DD455B7070030D0
:10DCA800C206C1862398D73C9459B7070030C206EC
:10DCB800C1862399D73CB70700302396673CB7073E
:10DCC80000302390173FD45DB7070030C206C186E5
:10DCD8002399D718B441B7070030C206C1862397E5
:10DCE800D71AF441B7070030C206C1862391D7146A
:10DCF800FC4523ACF124BC4923A2F124F449B7071D
:10DD08000030C206C1862395D744B44DB70700300A
:10DD1800C206C1862393D74CF44DB7070030C2061C
:10DD2800C1862391D754B451B7070030C206C186C3
:10DD3800239FD75AF451B7070030C206C186239BE8
:10DD4800D744B455B7070030C206C1862399D746D1
:10DD5800F455B7070030C206C1862392D746B45996
:10DD6800B7070030C206C1862390D748F459B707D1
:10DD78000030C206C186239AD748B45DB707003081
:10DD8800C206C1862392D74AF45DB7070030C2069F
:10DD9800C186239BD7481443B7070030C206C18603
:10DDA8002393D74A5443B7070030C206C186239E3F
:10DDB800D7481447B7070030C206C1862396D74A0A
:10DDC8005447B7070030C206C1862399D74C144B75
:10DDD800B7070030C206C1862397D74E544BB70702
:10DDE8000030C206C1862390D74E144FB7070030C3
:10DDF800C206C186239ED74E544FB7070030C206CD
:10DE0800C1862398D7501453B7070030C206C1867D
:10DE18002390D7525453B7070030C206C1862399BE
:10DE2800D7501457B7070030C206C1862391D7527E
:10DE38005457B7070030C206C186239CD750145BDD
:10DE4800B7070030C206C1862394D752545BB70780
:10DE58000030C206C1862397D754145FB707003035
:10DE6800C206C1862395D756545FB7070030C2064D
:10DE7800C186239ED7543443B7070030C206C186F3
:10DE8800239CD7567443B7070030C206C186239631
:10DE9800D7583447B7070030C206C186239ED758E3
:10DEA8007447B7070030C206C1862397D758344B4A
:10DEB800B7070030C206C186239FD758744BB707EF
:10DEC8000030C206C186239AD758344FB7070030AE
:10DED800C206C1862392D75A744FB7070030C206CC
:10DEE800C1862395D75C3453B7070030C206C18674
:10DEF8002393D75E7453B7070030C206C186239CAC
:10DF0800D75C3457B7070030C206C186239AD75E5C
:10DF18007457B7070030C206C1862394D760345BB4
:10DF2800B7070030C206C186239CD760745BB70769
:10DF38000030C206C1862395D760345FB70700302A
:10DF4800C206C186239DD760785FB70700304207B5
:10DF580041872398E7601841B70700304207418797
:10DF68002390E7625841B707003042074187239A58
:10DF7800E71E1845B707003042074187239BE71E75
:10DF88005845B7070030420741872392E7281849C8
:10DF9800B7070030420741872393E7285851B7074E
:10DFA8000030420741872390E71A1855B707003019
:10DFB800420741872394E7285855B707003042079E
:10DFC80041872395E7281859B7170030420741873A
:10DFD8002393E7805859B7170030420741872398A1
:10DFE800E796185DB7170030420741872399E796EF
:10DFF800DC41739027559845B707003042074183A5
:10E008002390E728D845B707003042074187239C6B
:10E01800E7268280814601466FF0EFBDE5DF9386F3
:10E02800F7FF93F6F60F93951600B2950395050042
:10E03800939517002E96831506000357070001468F
:10E04800898D420741876358B0BA098F3E07334626
:10E05800B7026353060001462167634EE6B813060C
:10E06800F7FF6FF04FB99387014041111306000382
:10E0780081453E8506C6EFA0A0311307800258C12E
:10E0880005671307C7CC18C57977B24013077766B9
:10E0980058C5377766FE58C9410182809387014089
:10E0A80003970700634907009306C00C3307D7029C
:10E0B80031872390E7008396070003952700D8430C
:10E0C8003385A6403305E50298473387E602C8D36F
:10E0D8000D873A9598D79853C8CF3A95984F88D3D3
:10E0E800635AA7000395070198D32396A7022391A3
:10E0F800D7008280D84B6356E5000395C70098D3B4
:10E10800EDB7318542054185CDB79387013D411172
:10E118001306000381453E8506C6EFA06027130756
:10E12800C00C58C105671307C7CC18C52167B24092
:10E138007D1718C937F7FF0718CD410182809387EB
:10E14800413B41113E857146814506C6EFA04024FA
:10E1580011671307A7472313E500116713076766BD
:10E168002314E50009375537B240B70700301307C5
:10E17800E05B2399E718410182809387013D03976B
:10E18800070063490700930690193307D7023187C0
:10E198002390E7008396070003952700D84333852B
:10E1A800A6403305E50298473387E602C8D30D87B2
:10E1B8003A9598D79853C8CF3A95984F88D3635AC9
:10E1C800A7000395070198D32396A7022391D700A8
:10E1D8008280D84B6356E5000395C70098D3EDB706
:10E1E800318542054185CDB74111B707003003D7C6
:10E1F800273F22C403D4473F26C29384413B4204AD
:10E20800598C06C64AC083D764002396840042040A
:10E218004180818FC207C1872397F4002390F14082
:10E22800B53D83D784002A89239BA400818F239836
:10E23800F13CA137239DA40003D5440081474A95AA
:10E24800420541856343A000AA8793960701797721
:10E25800C1861307776663D3E600BA87B2402244C3
:10E26800239CF4000249924441018280A387011C47
:10E278002388011C239C0116239B0116239A01164F
:10E2880023990116239801162397011695679387FA
:10E29800A7802392F11613073009239FF114239EB8
:10E2A800E114239001162395011623960116239451
:10E2B80001162393011685679387C7CC2391E1162E
:10E2C80023ACF100B77715089387C7E723A2F102BB
:10E2D80023A0010223AE010023AA010023A8010004
:10E2E8008280938701431307F01623A0070023A217
:10E2F800070023A6070023A8070098C7828073E0B9
:10E30800A0547360A1547360A2547360A454096745
:10E31800B70700307D172396E71C6177B7070030F1
:10E328001347F7FF2392E70E6177B7070030050719
:10E338002393E70EB70700302394070EB707003082
:10E348002395070EB70700309387C70E23A0070051
:10E35800B70700302397070EB70700302390070E42
:10E36800B70700302391070E8280B707003003D724
:10E37800E720420741879357F7403D8F1D8F42079B
:10E3880041879307101163D6E70A9307202263D4C5
:10E39800E70A9307404463D2E70A056695671306C0
:10E3A8008688938777119306B0396344E6028D47D0
:10E3B8001947B387E70217A700001307674EBA97F4
:10E3C80083964700B5C683D727001167D98FC20740
:10E3D800C187C207C183239FF114139706014183A4
:10E3E800239EE11413864116835606009385F7FF92
:10E3F80063D7B604850693970601C18393850116F2
:10E4080083D605002310F6001D4513862116636E7A
:10E41800D50285062390D500C207C187370700308B
:10E428002310F70E03170600B70700302391E70EF5
:10E4380082808147B5BF8547A5BF894795BF93852A
:10E448004700E3DDD5FAF1167DB723900116835610
:10E45800060063F6E60085062310D60075BF93050F
:10E46800370063D4D500F516C5BF2310E6006DB795
:10E47800B70700309387E72083D70700C207C18713
:10E4880013D7F740B98F998FC2070567C18713075C
:10E498004755634FF70AB707003003D7A713E97644
:10E4A8008567420741879386C699938727D8634C27
:10E4B800D706F5779387F7CC634DF708635DE008D7
:10E4C8008D66FD77938626339387E72763CDE60429
:10E4D8008D479386F7FF17A600001306A63B86060E
:10E4E800B305D6000398050097A500009385C539A4
:10E4F800AE960395060093961700B6958397050088
:10E508003307074142074187898FB387E702369669
:10E518000317060033070741B3C7E70223AEF1002C
:10E52800C207C187AA9723A0F1029386E116039731
:10E5380006001386E7FC6352C702130727039317E5
:10E548000701C1872390F60037070030231FF71013
:10E5580082808547BDBF8947ADBF13862703C207A1
:10E56800E351E6FE1307E7FCD9BFB707003083D6AF
:10E57800670015671307670DC206C186B687635320
:10E58800D700BA87939607010567C1861307A702C4
:10E5980063D3E600BA8713970701418783A741022F
:10E5A800B3C7E70293866117C207C187239CF11698
:10E5B80003970600138687F3635EC7001307870C6B
:10E5C80093170701C1872390F600370700302316F9
:10E5D800F71C828013864701E357E6FE3117CDB753
:10E5E800B70700309387E72083D70700C207C187A2
:10E5F80013D7F740B98F998FC2070567C1871307EB
:10E60800D7DD635AF70213878116835707009306ED
:10E61800703E63E6F60085072310F700828023A288
:10E6280001028397611795EBF327A054918B95C747
:10E6380073709254828005671307A7BB634FF70076
:10E6480023940116B77715089387C7E723A2F10229
:10E658008397E11699E37360A2548280B70700306C
:10E6680003D7470F93862117039606004207418771
:10E67800239AE11693170601C183635AE602B3078A
:10E68800F7402390E600C2071387F11CC187834631
:10E6980007002398F1161D466361D60617A60000E9
:10E6A8001306061B8A06B2969442B2968286BA97D9
:10E6B800B307F040F9B783A68101B7070030C20657
:10E6C8009387C71094C39386C11683D706004D4617
:10E6D8006366F60085072390F6008280F327A0542E
:10E6E8009396070163CB06002396011623AA01001F
:10E6F80023A8010085472300F70082801386C116EE
:10E7080083560600A54563E2D50293951600138744
:10E71800C1462E972310F70093854101984185063D
:10E72800BA979CC12310D600828023960116894788
:10E73800D9B79386C11683D706004D46636CF60099
:10E7480085072390F600B70700309387C71023A0EA
:10E7580007008280239601168D4771BF83A7810128
:10E76800C207B7060030B307F0409386C6109CC2B4
:10E778009386C11683D706004D46E37DF6F4F3274A
:10E78800A05493960701E3CA06F62396011623A818
:10E79800010091478DB71386C11683560600A5451B
:10E7A80063ECD50093951600138741442E972310E8
:10E7B800F700938501019DB723960116954725BF5C
:10E7C8009386C11683D706004D46E37BF6F623965B
:10E7D800011699470DB783A6410183A7010163CDAF
:10E7E800D700B706003083D7A62521667D16B297D5
:10E7F800C207C187239DF624B70700302390070E70
:10E80800B70700302391070EB70700309387C70E6C
:10E8180023A007009307000473B0875473F0A05433
:10E828007370A1547370A2547370A454B707003066
:10E838002396071C239601169D4775BD9386C1161E
:10E8480083D7060013061003E376F6E89566B70744
:10E858000030938666BF2390D70EB7070030930623
:10E86800401C2391D70EB70700302392071AA147FF
:10E8780059B5411106C683C7011D11476396E700C4
:10E88800F13BB2404101D5B11947639AE700893B92
:10E89800E939EFF0FFBDB24041016FF01FADB24062
:10E8A800410182800967B70700301307B7CF239863
:10E8B800E702B707003023990702B707003003D7EC
:10E8C800A725B707003042074187239BE70273D08B
:10E8D800C050F327C050858BEDFFB707003003D732
:10E8E8008703B70700309387A70383D7070042073A
:10E8F8004187B70600303E079386060BC20798C2C9
:10E90800C187B7060030BE079386460B9CC2B70680
:10E9180000309386860B98C2370700301307C70B61
:10E928001CC3B7070030938787259843B707003083
:10E938009387472598C3B70700301307A066239429
:10E94800E71A7D77B70700301307F7132395E71AFF
:10E958000D67B7070030130707382396E71A0967CA
:10E96800B7070030130787CB2397E71AB70700309C
:10E9780037D77D0E9387071B1307571598C3B7071B
:10E98800003013074003239EE716B707003013072C
:10E998003041239FE7161567B7070030130707C1F3
:10E9A8002390E70CB70700301307C0142391E70C36
:10E9B8001567B70700301307D7A02390E714B707E8
:10E9C80000301307600E2391E7148280B7070030E8
:10E9D80003D76700B707003041119387E72022C4A7
:10E9E80083D7070006C61384011D83470400954694
:10E9F80063E1F60497A60000938686E78A07B69730
:10EA08009C43B6978287EF10305BEFF05F8FEF2063
:10EA180000382395011685472300F40019A81387A9
:10EA2800A11683570700854663E9F600850723107A
:10EA3800F700B2402244410182802395011689479C
:10EA4800E1BF9566B70700309386A68042072390FA
:10EA5800D70E4187B7070030930630092391D70EA8
:10EA68004207B7C73B0341839387B75C23A2F102F0
:10EA7800B3C7E702C207C187239BF116239CF1168F
:10EA8800370700302316F71C239501168D4769B701
:10EA98001387A1168357070093061003E3F8F6F8C7
:10EAA8009306B00363ECF60085072310F700B7C799
:10EAB8003B039387B75C23A2F102A5BF23950116F8
:10EAC8009307000473A08754A387011C9147A9B733
:10EAD80003C7F11CA147E31EF7F4954735BFD933A7
:10EAE80099471DBF4111156722C626C44AC24EC0A8
:10EAF800B70700301307670D2392E73E0D67B70786
:10EB080000301307B7862393E73EB70700306D57E9
:10EB18002394E7440965B7070030239C074A130587
:10EB28006566B70700306177239DA74A1347F7FF4B
:10EB3800B70700302390E74C85679387976CB70633
:10EB48000030239AF64413061003B7060030239BBF
:10EB5800C644B70600302398F646B7070030239915
:10EB6800C746B707003023940748B70700302395F6
:10EB78000748130FC008B70700302395E745856796
:10EB88009387C7CCB70600302390F646FD76938668
:10EB98004633370600302311D64637060030231E89
:10EBA800F64637060030231FD646B7050030130651
:10EBB800E05B2392C546B70500302390C54813088B
:10EBC800B004B7050030239F05495D48B7050030FC
:10EBD800239A0549C948B7050030239B1549B7054D
:10EBE8000030930890062397154BB7050030239201
:10EBF800054B3549B70500302393254B930E4050FC
:10EC0800B7050030239ED549130E4039B7050030AB
:10EC18002396C54B7978B70500301308A899239A2D
:10EC2800A54AB7050030239B054BB7050030239153
:10EC3800E54C9D48B70500302392154DB7050030C7
:10EC4800239A0552B7050030239BF552B7050030CB
:10EC5800239EE5528565938545B6B708003023980D
:10EC6800B84C3143B70800302399684CB7080030D6
:10EC78002396B84EB70800302397684EB70800307F
:10EC880023920850B708003023930850B708003083
:10EC98002393E84DB7080030239EF84CB70800309E
:10ECA800239FD84CB7080030239CF84EB708003093
:10ECB800239DD84EB70800302390C84EB7080030BF
:10ECC800239EC84E13045002B7080030239D885075
:10ECD800B70F0030AD4823981F51A543B70F003038
:10ECE80023997F5093024003B70F003023955F525A
:10ECF800B70F003023901F53B7040030994F23916A
:10ED0800F453B7040030239CD451B7040030239443
:10ED1800C453B70400302398A452B7040030239991
:10ED28000453B7040030239FE452D559B704003088
:10ED380023903455B70400302398045AB7040030A0
:10ED48002399F45AB7040030239CE45AB7040030DE
:10ED58002396B454B704003023976454B7040030A2
:10ED68002394B456B704003023956456B704003092
:10ED780023900458B704003023910458B704003096
:10ED88002391E455B7040030239CF454B7040030B1
:10ED9800239DD454B7040030239AF456B7040030A6
:10EDA800239BD456B7040030239EC454B7040030C4
:10EDB800239CC456B7040030239B8458B704003002
:10EDC80023961459B704003023977458B7040030B9
:10EDD8002393545AB7040030239E1459B7040030C3
:10EDE800239FF459B7040030239AD459B70400304C
:10EDF8002392C45BB70400302396A45AB7040030AA
:10EE08002397045BB7040030239DE45AB70400300D
:10EE1800239E245BB704003023960462B7040030B5
:10EE28002397F462B7040030239AE462B7040030F1
:10EE38002394B45CB70400302395645CB7040030B5
:10EE48002392B45EB70500302393655EB7050030A2
:10EE5800239E055EB7050030239F055EB705003089
:10EE6800239FE55BB7050030239AF55CB7050030B2
:10EE7800239BD55CB70500302398F55EB7070030B3
:10EE88002399D75EB7070030239CC75CB7070030CB
:10EE9800239AC75EB707003023998760B707003009
:10EEA80023941761B707003023957760B7070030C0
:10EEB80023915762B7070030239C1761B7070030CA
:10EEC800239DF761B70700302398D761B707003053
:10EED8002390C763B70700302394A7623244B7076B
:10EEE800003023950763B7070030239BE762A244ED
:10EEF80012498249410182809387014D1307B01955
:10EF080023A0070023A2070023A6070023A80700C1
:10EF180098C79387C14B23A0070023A2070023A605
:10EF2800070023A8070098C79387814A23A00700F2
:10EF380023A2070023A6070023A8070098C79387E2
:10EF4800414923A0070023A2070023A6070023A8FE
:10EF5800070098C7828023A2014E9387014F054777
:10EF68002390E700A381070023820700239307006B
:10EF7800A38407002385070041B79386014DD84233
:10EF88009046B307E5409CCAB387C702BD873305DF
:10EF9800F700DCC688C2C8C282809386C14BD842BB
:10EFA8009046B307E5409CCAB387C702BD873305BF
:10EFB800F700DCC688C2C8C282809386814AD842DC
:10EFC8009046B307E5409CCAB387C702BD8733059F
:10EFD800F700DCC688C2C8C2828093864149D842FD
:10EFE8009046B307E5409CCAB387C702BD8733057F
:10EFF800F700DCC688C2C8C2828079719305F10027
:10F00800614506D622D426D24AD04ECE52CC56CA14
:10F01800A3070100EF50D05603A7C1039947631215
:10F02800F706B70700309387A71B83D70700B1CB34
:10F038008344F100A1C885476386F4048947638740
:10F04800F404F51433399000054A854485499387BB
:10F05800014F1384414EA380970023824701A38365
:10F068003701238527018347040011476367F702A7
:10F0780017A70000130747848A07BA979C43BA97D3
:10F0880082878144014A81490149D1B78544054AAB
:10F09800DDBF73E080568547B9E483471400114704
:10F0A8006360F70C17A70000130747828A07BA970F
:10F0B8009C43BA97828773608156B70A003003D79A
:10F0C8002A4CA1679387E7D642074187938A2A4C3F
:10F0D80063CEE70021657D154D35420541852390B6
:10F0E800AA00C5FC8D472300F40045BFE17793C70C
:10F0F800F7FF2390FA0089472300F400DDB7B7042F
:10F10800003083D7244C130700029384244CC20791
:10F11800C1876359F70001458D3542054185239024
:10F12800A400A5BF23900400737081569147230063
:10F13800F4002394014E95B7835744001307300613
:10F148006366F70085072312F40081BF2394014EFC
:10F158002382014E99B773608256854763190A0462
:10F168008347240011476361F70C179700001307C2
:10F1780027778A07BA979C43BA9782877360845621
:10F18800B704003003D7E453A1679387E7D6420753
:10F1980041879384E45363CFE70021657D15F53BF0
:10F1A800420541852390A400E31C0AFA8D47A30079
:10F1B800F4007DB7E17793C7F7FF2390F400894700
:10F1C800A300F400D5B7B704003083D7E45313077E
:10F1D80000029384E453C207C1876359F7000145CD
:10F1E8006D3B420541852390A4009DBF23900400F8
:10F1F800737084569147A300F4002395014E8DB790
:10F2080083576400130730066366F70085072313E6
:10F21800F400B9B72395014EA382014E91B77360EC
:10F2280088568547639C0904834734001147636700
:10F23800F70C179700001307E76B8A07BA979C43E8
:10F24800BA9782879307000273A08756B7040030E5
:10F2580003D7A45BA1679387E7D6420741879384C6
:10F26800A45B63C0E70221657D15EFF01FD5420559
:10F2780041852390A400E39909FA8D472301F400FE
:10F2880065B7E17793C7F7FF2390F4008947230117
:10F29800F400D5B7B704003083D7A45B1307000286
:10F2A8009384A45BC207C187635AF7000145EFF056
:10F2B800DFD0420541852390A400BDB72390040008
:10F2C8007330875691472301F4002396014EA9BF56
:10F2D80083578400130730066366F70085072314F5
:10F2E800F40099B72396014E2383014E35BF930747
:10F2F800000473A08756854763170904B250225447
:10F3080092540259F249624AD24A4561828093076F
:10F31800000873A08756B704003003D76463A16759
:10F328009387E7D6420741879384646363C0E70203
:10F3380021657D15EFF07FCA420541852390A40021
:10F34800E31E09FA8D47A301F4004DBFE17793C787
:10F35800F7FF2390F4008947A301F400D5B7B70459
:10F36800003083D764631307000293846463C20781
:10F37800C187635AF7000145EFF03FC64205418552
:10F388002390A400A5BF239004009307000873B03E
:10F3980087569147A301F4002397014E85B78357F9
:10F3A800A400130730066366F70085072315F400E9
:10F3B800B1B72397014EA383014E89B7011122CE1D
:10F3C80026CC4ACA4EC852C6916773B0A7568967F9
:10F3D80073B0A756856773A0A7569387078073B045
:10F3E800A7569307004073A0A7569307002073B051
:10F3F800A7569307001073B0A7569307000873B079
:10F40800A7569307000473B0A7569307000273B07A
:10F41800A7567360A8567360A456896637170030DC
:10F428009386263D231FD7D89305303337170030EE
:10F438002318B7DC37170030231D07DE37170030D5
:10F44800130747DE2320070061771347F7FFB71636
:10F458000030239EE6D813067013B71600302390A9
:10F46800C6DAB716003041462392C6DAB71600301E
:10F478002394F6DAB71600302396F6DA6146B71603
:10F4880000302398C6DA1305C007B7160030239A50
:10F49800A6DAB716003013058017239CA6DAB7162C
:10F4A8000030239EC6DAB71600301306D003239027
:10F4B800C6DCB71600302392F6DC5146B71600308A
:10F4C8002394C6DCB7160030130660092396C6DC01
:10F4D8008546371600302314D6DE3716003023153C
:10F4E80006DE371600302316D6DE3716003023170F
:10F4F80006DE371600302318D6DE371600302319FB
:10F5080006DE37160030231AD6DEB7160030239BE6
:10F5180006DEB7160030239DB6DC1306A01CB7160E
:10F528000030239CC6DEB71600302391E6DA8966E0
:10F5380093869699371600302313D6DA1305F028E8
:10F54800371600302315A6DA930530083716003031
:10F558002317B6DA371600302319F6DA37160030D3
:10F56800231BF6DA37160030231DE6DA371700308A
:10F57800231FD7DA371700302311A7DC37170030DD
:10F588002313B7DC371700302315F7DC37170030A3
:10F598002317F7DCB71700301307A026239AE7DCF8
:10F5A800B71700301307C016239BE7DCB7170030E6
:10F5B800130700682399E7DC2167B71700301307A2
:10F5C80027B1239CE7DC37130030B7180030371811
:10F5D800003037150030B715003037160030B71631
:10F5E80000303717003081471303C3B7179A00005C
:10F5F800130A4A57938808BC97990000938949527F
:10F60800130808CD179900001309494D130545D172
:10F618009794000093844448938585D517940000F7
:10F6280013044443130646C0979300009383433E54
:10F63800938686C497920000938242391307C7C8FD
:10F64800979F0000938F4F34130E2004338F470188
:10F65800031F0F00B38E67002390EE01338F37012D
:10F66800031F0F00B38E17012390EE01338F27017C
:10F67800031F0F00B38E07012390EE01338F97000D
:10F68800031F0F00B38EA7002390EE01338F87006E
:10F69800031F0F00B38EB7002390EE01338F77005E
:10F6A800031F0F00B38EC7002390EE01338F57005E
:10F6B800031F0F00B38ED7002390EE01338FF7019D
:10F6C800031F0F00B38EE70089072390EE01E39F25
:10F6D800C7F723AE014E23A0015023A4015023A64F
:10F6E8000150724495679387C70623A2F150E244FC
:10F6F8005249C249324A05618280B717003003D7A0
:10F7080067DE93860151904242074187938767DEFF
:10F71800D442635BE60403D7070042074187635579
:10F72800D70483D7070021677D17C207C187918F48
:10F73800B387E702918EB3C7D7029166FD16B387E8
:10F74800D702BD87B307F74023A4F102F327006669
:10F7580093F7070489EB9307B0062384F11C9307FA
:10F7680030F9A383F11C828003D707008147420741
:10F778004187E35BD7FCA167FD17F9B7939716009C
:10F78800F9173387F500031707006346E500B297BA
:10F798000395070082808397050063DAA7002E8708
:10F7A8008147FD1663C8D7008146814715A0031518
:10F7B8000600828003180700634205070318270024
:10F7C800634EA80493F7F70F9386170093F6F60F86
:10F7D800139717008606B387D500BA958397070055
:10F7E80083D50500B2963A9683D6060003570600DD
:10F7F8003385A7408D8F3387E640C207C18742070C
:10F8080041879607B3C7E7021605C207C187B34702
:10F81800F5023385F6404205418582808507090750
:10F8280051B79386C14FD842904693570741B307C3
:10F83800F5409CCAB387C70286073305F70088C21C
:10F84800C8C2DCC641858280411193060002179622
:10F8580000001306660B979500009385E50E039547
:10F86800C10206C622C4193F1384015108C4553F7A
:10F8780048C4B2402244B71700302398A7DC41019E
:10F8880082800567938701521307B74123A00700B9
:10F8980023A2070023A6070023A8070098C7828091
:10F8A8009387415341111306000281453E8506C6E0
:10F8B800EF80102EB2401307E07A2314E5001307F7
:10F8C80060662316E50041018280B7070030B7065D
:10F8D80000309387E72083D707009386A61B03D6BB
:10F8E800060083D60600C207C18713874153420624
:10F8F800C2065CC34186C18663540600B306D04085
:10F9080014CF93D6F740B58F958FC207C1831CC318
:10F91800F326A054A18AD5EA8316C70063CBF6065E
:10F928008317E7009306100363CBF60085072317B8
:10F93800F7008316070185476397F60085A0239192
:10F94800015423920154B70700309387C71F94438B
:10F95800B70700309387C71494C3856793870780D8
:10F9680073A087547360A4541C4F8966FD16B3872F
:10F97800D70293061004BD8763D4D70093071004F9
:10F98800544F5CCB63C7D70663D7F6069387160038
:10F998009DA02391015485472318F700B70700302D
:10F9A8009387C7149443B70700309387C71F94C33E
:10F9B80085679387078073B087547370A4545C4F2E
:10F9C8006343F0008547FD173DA08316870063CF8A
:10F9D800D7008317A7009306100363C6F6008507B0
:10F9E8002315F700B9B7239F015275B7239F01521A
:10F9F80089BF9387F6FF5CCF82800395415682804A
:10FA08009387415941111306000381453E8506C677
:10FA1800EF801018056758C11307701418C513072D
:10FA2800606618C91307A09958C537676600130799
:10FA38009759B24018CD37A799FF130777A658C929
:10FA4800410182803707050093878158150723A055
:10FA5800070023940700D8C365B715679387415CEF
:10FA68001307C70623A0070023A2070023A6070041
:10FA780023A8070098C7828041116D46C5451385A4
:10FA8800816B06C6EF80D0106D46C545138541666B
:10FA9800EF8010106D46C5451385C169EF80500F82
:10FAA8006D46C54513858164EF80900E6D46C5454A
:10FAB80013850168EF80D00D6D46C5451385C16279
:10FAC800EF80100D216601479305200217C500003D
:10FAD800130505867D1697B800009388E84B4543C3
:10FAE800138E816B6D48B306B702814729A8B38E80
:10FAF8001601839E0E00638ECE00850793F7F70FDD
:10FB08008906638C6700B38EA600839E0E00E3907F
:10FB1800CEFEB306EE002380F6000507E31507FDC9
:10FB2800216601479305200217B500001305450D0E
:10FB38007D1697B80000938828D34543138E4166F5
:10FB48006D48B306B702814729A8B38E1601839E74
:10FB58000E00638ECE00850793F7F70F8906638C36
:10FB68006700B38EA600839E0E00E390CEFEB30618
:10FB7800EE002380F6000507E31507FD216601471F
:10FB88009305200217B50000130585947D1697A8E4
:10FB980000009388685A4543138EC1696D48B306BF
:10FBA800B702814729A8B38E1601839E0E00638E83
:10FBB800CE00850793F7F70F8906638C6700B38E2D
:10FBC800A600839E0E00E390CEFEB306EE002380CF
:10FBD800F6000507E31507FD216601479305200296
:10FBE80017A500001305C51B7D1697A8000093886C
:10FBF800A8E14543138E81646D48B306B702814777
:10FC080029A8B38E1601839E0E00638ECE00850749
:10FC180093F7F70F8906638C6700B38EA600839E5F
:10FC28000E00E390CEFEB306EE002380F600050733
:10FC3800E31507FD216601479305200217A500007B
:10FC4800130505A37D16979800009388E868454337
:10FC5800138E01686D48B306B702814729A8B38E91
:10FC68001601839E0E00638ECE00850793F7F70F6B
:10FC78008906638C6700B38EA600839E0E00E3900E
:10FC8800CEFEB306EE002380F6000507E31507FD58
:10FC98002166014793052002179500001305452AA0
:10FCA8007D1697980000938828F04543138EC1620B
:10FCB8006D48B306B702814729A8B38E1601839E03
:10FCC8000E00638ECE00850793F7F70F8906638CC5
:10FCD8006700B38EA600839E0E00E390CEFEB306A7
:10FCE800EE002380F6000507E31507FDB240410149
:10FCF80082801967130757669387815D6358A70C3D
:10FD0800D8CB85463A851967931845001307576677
:10FD1800B3C8E8021306606601433386C802635419
:10FD2800A6003303C54001486308E5001318C30063
:10FD3800130760663348E8023D772380D70088CFF1
:10FD480023A61701D0CF23A0670223A80701130712
:10FD5800D7AA63D3E500BA854567130737556353B8
:10FD6800B700BA85CCD3054863D50500B305B040C4
:10FD78000148694545671307375505661306A6AA5E
:10FD8800A38007018CD73385A5023347E502D8C382
:10FD98003307C7020146D8D76354B7003386E54016
:10FDA800B7351C0090DB9385D5A6014763C8A5002D
:10FDB800056732061307A7AA3347E602B38606414A
:10FDC80093B6160098C72381D700828069771307F6
:10FDD800B7996358E500D8CB3A853305A0408146EA
:10FDE8001DB7C8CB8546E35005F2C5BF5C41AA865E
:10FDF80063D30700814769476353F700E947D8464B
:10FE080063530700014741466353E6004147D04A20
:10FE18003303F600A9EB034603001305F00F630B49
:10FE280006169305170003A8860183A8C60163C1B7
:10FE3800C5041307F6FF45463386C7023A960606F9
:10FE4800B305C80046968395050003160600694564
:10FE5800638EA7060345130059E94545B387A702F2
:10FE6800BA97860785A883450300D5F5FD174DB7D2
:10FE780045463386C702B30EE600860E330ED80118
:10FE8800031F0E00216E7D1E6306CF112E960606F7
:10FE9800B305C80083950500638EC50FC69E839E73
:10FEA8000E006389CE0F4696031606006304C60F3C
:10FEB800884AB385E5413306D641B385A5023306A2
:10FEC800A602B185FA953186769651B71307A71B16
:10FED800931717003E98C6970317080083970700E3
:10FEE80021687D181305F00F639D05078280130FA5
:10FEF800170085076348AF004547B387E7027D15BC
:10FF0800AA9785B74545B387A70221637D131305D3
:10FF1800F00F3E97131E17003307C801831E070012
:10FF2800638A6E06FA9786073E98031708006303EC
:10FF38006706469E03180E00630E6804C6978397EB
:10FF4800070063896704884A3307D741B3870741A5
:10FF58003307A702B387A70231877697B187C2977D
:10FF680041B71305F00F63070703630506036383AF
:10FF7800070388460D8F918F3307A702B387A7021F
:10FF880031872E972390E6000145B187B2972391D8
:10FF9800F60082808280FD77938757FD41113E9657
:10FFA800916726C206C622C49387A70A93840103D1
:10FFB80063F2C70223980102814703D70400B240C5
:10FFC80022442391F4002393E1142392F1149244E0
:10FFD80041018280E9779387B7996353F5003E859D
:10FFE80099679387576663D3A7003E85EFF07FD064
:08FFF8009387815DD843138457
:020000021000EC
:10000000C16058C0984718C4D84758C4984B83C794
:10001000270018C895EB9386416617B700001307B1
:10002000A7BE97B700009387A7841385C16054C803
:1000300018CC5CCCEFF01FDC51F183570400239007
:10004000F40083172400B5BF9386816B17B70000B7
:100050001307872E97B70000938787F4F9B723908B
:100060000118A388011C23930118239201182391DE
:100070000118239F0116239E0116239D01168280DD
:10008000138701188316070085679387A780158D4E
:100090003305F5023D853695420541852310A700BD
:1000A0008280411106C622C426C283C7E11C0D47C7
:1000B0006387E70E636BF7000547638BE70C09471F
:1000C0006385E7068144014445A81147E39CE7FEA8
:1000D00003C7D11C83D7411519C3B307F040C2072A
:1000E0006977C1871307B7993E8563D3E7003A85DF
:1000F000931605011967C186130757666353D70026
:100100003A852393F118239FA116420541858D3F1F
:1001100003D601138395C1132391A118EFF03FE893
:10012000039461148394411481A803C7C11C83D72D
:10013000A11519E3B307F040239EF11603A781032D
:1001400009EB9386415390420567130787886358EC
:10015000C70003D4C13C3E944204418419A00394D7
:10016000C60183C7D11C83D4811599C3B3049040C1
:10017000C204C184239D9116A6852285BD2BB24061
:100180002398811422442397911492444101828040
:10019000839761152394F1582396F11425B703C76B
:1001A000D11C83D7811519C3B307F040C207C1879B
:1001B000239DF1162395F1141387413B2318F70073
:1001C00083C6C11C83D7A11599E2B307F040C207CB
:1001D000C187231AF700239EF1162394F114DDB58D
:1001E000A389011CA38A011C238B011C23950118E0
:1001F0002394011823AE01022389011C23960118C0
:10020000238A011C8280411126C2938481039C4071
:1002100022C406C603C4911CA1CB05476391E70421
:10022000B7070030130710B82394E742B707003030
:10023000239607420D67B70700302397E74285678B
:100240009387078073A0E754856773A0E754896795
:1002500073B0E7547360A45419E023AC0102B240B8
:100260002244924441018280B7070030130710B83E
:100270002394E742B7070030239607420567B70784
:1002800000302397E742B70700302392071AB707D9
:1002900000302393071AB7070030239F071885679C
:1002A0009387078073B0E7547330E754896773B05E
:1002B000E75483A7C103ED1705476364F700EFF028
:1002C0004FE18547E31DF4F880C051BF83C7311D5E
:1002D000A1E78547A389F11C9307000873B0175461
:1002E00073F0805423AAA102930700320100FD1786
:1002F000C207C183E5FF83C7411D9DC773F010543A
:1003000073701254737018547370115473701454C2
:100310009307000273B0175413878118835707009F
:1003200085072310F700828073F010547370125405
:10033000737018547360145473601154930700025F
:1003400073A01754D1BF011122CC26CA4AC84EC689
:1003500006CE83C9B11CEF50302E8D472A891384F5
:10036000C1039384311D63F6A702A1471CC0EF00AF
:10037000F02503C7040095469377F70F63EDE60871
:1003800017B700001307C7348A07BA979C43BA9778
:1003900082871C4021476368F70617B700001307E0
:1003A000A7348A07BA979C43BA978287EF00101B3D
:1003B000E38109FC854731A0EF00701B8947E38A80
:1003C00009FA1CC07DB7EF00B0068D477DF955B71F
:1003D000C52EEF00501C9547EDB7EF00102599474B
:1003E000CDB79D47E38F09FC69B7EF00301ED9B741
:1003F000EF00D01D83C70400ADFFEF0030215DBFCB
:10040000EFE04FDDBDB723AE0102A5B78D4763F422
:100410002701EF00301F1C40F24062442383F11C8F
:1004200083A741032396F112D2444249B2490561A0
:1004300082801387C118835707009306703E63E6D6
:10044000F60085072310F700F9B783C7411DE1D7F0
:100450002396011889472380F40075BFEF00F01739
:10046000239601188D47C5BF1387C118835707000E
:1004700093063006E3F7F6FC239601189147E1BF97
:1004800003C7211D8947E3F8E7F89947E9B72396A1
:100490000118A389011C41B701119305D1006D45D5
:1004A00006CEEF40700E8347D1009305E10013059F
:1004B00000022387F11CEF40300D8357E1009305C4
:1004C000E1007D45239DF114EF40100C8357E100BE
:1004D0009305D1007945239CF114EF40F00A83473E
:1004E000D1009305D10013053002A386F11CEF4023
:1004F000B0098347D1009305E1001305100223865C
:10050000F11CEF4070088357E1009305E100694555
:10051000239BF114EF4050078357E1009305D1006E
:100520007145239AF114EF4030068347D1009305BB
:10053000E10013059002A385F11CEF40F0048357FE
:10054000E1009305D100130580022399F114EF40D7
:10055000B0038347D1009305D10075452385F11C75
:10056000EF4090028347D100F240A384F11C056163
:100570008280011122CC83D721146174A297930544
:10058000E100094506CE2317F100EF40807183D7C3
:100590000114A2979305E10005452317F100EF40F0
:1005A000407083D7E113A2979305E100014523171B
:1005B000F100EF40006F83D7C113A2979305E100CC
:1005C0000D452317F100EF40C06D83D7A113A2970B
:1005D0009305E1001D452317F100EF40806C83D7A0
:1005E0008113A2979305E10015452317F100EF4011
:1005F000406B83D76113A2979305E1001945231738
:10060000F100EF40006A83D74113A2979305E10000
:1006100011452317F100EF40C06883D72113A2973B
:100620009305E10029452317F100EF40806783D748
:1006300001139305E10045452317F100EF40606683
:1006400083D7E112A2979305E10041452317F100FA
:10065000EF40206583C7811C938787029305D100F3
:100660002145A306F100EF40C06383C7711C938747
:1006700087029305D1002545A306F100EF40606293
:1006800083C7611C9305D1003545A306F100EF40F7
:10069000406183D7C1129305E1003D452317F10066
:1006A000EF40206083C7511C9305D1003945A30654
:1006B000F100EF40005FB70700309387E70E83D764
:1006C000070021647D14A2979305D10031452317BB
:1006D000F100EF40005DB70700309387E71483D740
:1006E00007009305D1002D45A2972317F100EF4095
:1006F000405BF240624405618280B7070030239C72
:10070000A71AB7070030239DB71A8280B7070030B9
:100710009387671183D707002391F114B70700303F
:100720009387271E83D707002390F114B707003063
:100730009387E76383D70700239FF112B707003041
:100740009387E72083D70700239EF112B707003075
:100750009387871383D70700239DF112B7070030D3
:100760009387871B83D70700239CF112B7070030BC
:100770009387A71383D70700239BF112B707003095
:100780009387A71B83D70700239AF112B70700307E
:1007900003D7273F9387273F83D727002399E11269
:1007A000B7070030990783D707002398F112B707DE
:1007B00000309387870D83D707002397F11282803B
:1007C000797106D622D426D24AD04ECE52CC56CA01
:1007D0005AC85EC69307000873B01754737001546B
:1007E0007350A055737024547370285493070002FB
:1007F00073B02754130700207330275473702154AB
:1008000073F0205473B03754737038547370345489
:1008100073F030547350805473509054056637050C
:100820000030130606FA814513050506EF70D03631
:10083000B7070030239507029307004073B0675451
:10084000916773A0A75873A0A754F327A0541397D8
:100850001701E34C07FE9164F327A0581397170183
:10086000E34C07FEB7070030A10783D707001386C4
:10087000E1199386C119C207C1872390F11A37077E
:1008800000302907035707002310E6003707003020
:100890003107035707002390E60037070030231E77
:1008A000F71A03170600B7070030239FE71A03D78C
:1008B0000600B7070030239CE73E9307A02C3707BC
:1008C00000302316F708370700302317F7083707DB
:1008D00000302318F708370700302319F7083707C7
:1008E0000030231AF70837070030231BF7087390EE
:1008F0001755B7070030130740592390E728B7076B
:1009000000301307002B239CE726B7070030239FF6
:100910000726B7070030239D07261547B707003085
:10092000239EE72673608154B7070030054B239759
:1009300067399309000273B099541167B7170030F3
:10094000130747592393E7801167B7170030130740
:10095000870E2398E7961167B71700301307A7F1A2
:100960002399E796A16A73A08A5609647320845676
:1009700005697330895673A08456930B001073B0C9
:100980008B561967B707003013075766239AE71C81
:10099000EFC0BF9537050030B705003023100514B0
:1009A000B7080030216723910514938848147917FC
:1009B000370800302390E800E1772313F8149306FA
:1009C000C00D370700302314D72837070030231510
:1009D000D72837070030930620492310D71A370746
:1009E0000030930620222311D71A37070030231F27
:1009F00007189D66370700301307071B9386B6CC90
:100A00002310D700B70600302399961A130A002046
:100A1000B706003037060030239A461BB706003071
:100A2000231C061A0963130383CB239D061A370E72
:100A3000003023126E28370E0030130505149385FD
:100A40002514130868141306861B9386A61B23130C
:100A50006E287360E2547370E15473F0E0547320B5
:100A6000B4547330B954370300302314031A3703D6
:100A700000302315031A370300302316031A3703F7
:100A800000302317031A2320070037070030231EE6
:100A900007161303304137070030231F6716370747
:100AA00000302310070C370700302311070C93C7C1
:100AB000F7FF370700302312F70C6177050737037C
:100AC00000302313E30C2390F8002310E8003708CC
:100AD000003023140814370800302315081423109D
:100AE00005002390050073B0EB5413050008732034
:100AF000E5549305000473B0E55473B0E954737082
:100B0000E854B70500302392F50EB7070030239361
:100B1000E70E732005509307004073A0D75473303D
:100B2000DA549307C00B7390175623AC61038567A3
:100B30009387078073A0E7547320E9547330E4541B
:100B40007360A454B7070030130710B82394E7422A
:100B5000B707003005672396074213070740B7071A
:100B600000302395E742B70700302397074273B060
:100B7000E4547330E4542310060023900600B707B2
:100B800000302393270B1307E05BB707003023994E
:100B9000E718EFD0BFF5EFE0FF8273B00A5073A003
:100BA000045091679387B70A370700302313F70083
:100BB000370700302310F7002311F73E73B0395484
:100BC000737038547370345473F030547370245409
:100BD0007370285473B0295473302A54737021549D
:100BE00073E0205485679387F7AB7390775473272E
:100BF000705442074187B7070030239BE7267327CD
:100C0000705442074187B70700302393E76673208B
:100C1000095473B0045473200454B25022549254B3
:100C20000259F249624AD24A424BB24B4561828034
:100C30009387A11903D70700954663E2E60297B6AA
:100C400000009386A6AC0A073697184336970287AA
:100C5000737001547350A05505472390E700014578
:100C60008280736001541307E008731017557350A6
:100C70007054239C01180947CDB7138781198356F7
:100C8000070099EE85472310F700F327705493E788
:100C90001700739077549307000873A01754C1B7D7
:100CA000239C01180D4755BF1387811983560700F0
:100CB00099EA85472310F700F327705493E747001C
:100CC0007390775469BF239C0118114779B7138734
:100CD00081198356070089EA85472310F700F32717
:100CE000705493E70701E9BF239C01181547B5B776
:100CF0009307000873B01754F32770544167130724
:100D000007FCF98F73907754737001547350A0559A
:100D10000545828041111306C00781451385416D49
:100D200006C623AA0102EF702067B2402390011A81
:100D3000239F0118239E0118239D0118238C011C59
:100D4000A38B011C93070003A38DF11C238DF11CC1
:100D5000A38CF11C23AE01024101828073701366E3
:100D60009307000873B0175473F0805482804111C8
:100D700006C6EFF03FFAEFD04FD7EFD0AFCFEFE09E
:100D8000DFB0EFE0BFCCEFC04FDFEFD0CFBBB24062
:100D900041016FE07FB19307000873B0175473F0FF
:100DA000105473701254737018547370115473701C
:100DB000145413070002733017547350A055736016
:100DC000015473E0805473A0175482809307000885
:100DD00073B0175473F0805482809307000873B087
:100DE000175473F0805473F010547370125473706E
:100DF000185473701154737014549307000273B035
:100E000017548280A16773A057548280A16773B082
:100E1000575473B06754828023AA01021306C00797
:100E200081451385416D6F7020574111096706C6D2
:100E30001307B7CFB70700302398E702B707003092
:100E400023990702EFE0FFBBB7070030239BA702FF
:100E500073D0C050F327C050858BEDFFB70700302B
:100E600003D78703B70700309387A70383D707000B
:100E700042074187B70600303E079386060BC2073C
:100E800098C2C187B7060030BE079386460B9CC246
:100E9000B70600309386860B98C2370700301307D9
:100EA000C70B1CC3B7070030938787259843B70744
:100EB00000309387472598C3B70700301307A06613
:100EC0002394E71A7D77B70700301307F7132395AC
:100ED000E71A0D67B7070030130707382396E71A9C
:100EE0000967B7070030130787CB2397E71AB707BF
:100EF000003037D77D0E9387071B1307571598C30C
:100F0000B707003013074003239EE716B7070030EA
:100F100013073041239FE7161567B7070030130703
:100F200007C12390E70CB70700301307C0142391C3
:100F3000E70C1567B70700301307D7A02390E71415
:100F4000B70700301307600E2391E7140567B70752
:100F50000030130787A22396E71EB7070030130758
:100F600020412397E71E0967B70700301307270BB7
:100F70002398E71EB70700300D672399E71EB707D0
:100F800000301307B01C239AE71E0567B70700302F
:100F90001307A758239BE71E7D77B7070030130779
:100FA000376A239EE7627360A2567370A15673F08E
:100FB000A0569307000473B097547370A4548567C8
:100FC0009387078073A08754B2404101828041110A
:100FD00006C635241567B70700301307670D239A37
:100FE000E7000567B70700301307A702239CE70057
:100FF00073704254736041547D57B7070030238BA0
:10100000E700B7070030238DE70093066066B70757
:101010000030239ED700B7070030238FE70073E02E
:101020004054B70700301307300A2396E702B7078A
:101030000030130750052397E7027370485473700C
:101040006854B7070030130720222390E702930764
:10105000001073B047540D67B707003013074755AA
:101060002391E7029307002073B04754B70700307D
:101070001307F0072392E7029307004073B0475429
:10108000B70700301307F00F2394E7020D67B70787
:101090000030130747332398E700B2401567B707BE
:1010A00000301307C7CC2399E7004101828073F019
:1010B000A06073F0102482809307004073A0370172
:1010C000896773A0370173E030019307000873A0AC
:1010D000370113070004732037031307F00F732041
:1010E00017661307303373102766736002667370D8
:1010F000016673A0076682809307000873B00762D9
:101100009307000473A007629307000273A03703DC
:1011100073A017037360320373E008628280930741
:10112000000273A037019307000473A037019307EF
:10113000000873A0370173B0176273E01062737018
:1011400022627370216273F0206285679387078043
:1011500073B027629307004073B0276293070020A3
:1011600073B027628280736034019307001073A00C
:10117000370185679387078073A037011307000243
:10118000733007607370086073700460737002607E
:101190007370016073F000607370116073F0106021
:1011A0009306000473B02660733027607370286064
:1011B0007370246073702260737021607370786044
:1011C00073707460737072607370716073E07060DC
:1011D000130700087330276073E0206013072004B2
:1011E0007310676073B027609307004073B0276087
:1011F000736032607360316073E030608280896751
:101200009387074873A037019307000473B01760F2
:101210001307000273301760916673A0360173B034
:10122000160173E000647370086493067012739083
:1012300016642391D11A733007547360085473A055
:101240000754736014607360116073E01060737012
:1012500032607360316073E0306073A00760F32721
:1012600010602395F16E736018608280AA87AA953A
:1012700097A600009386064B32856393B700828061
:1012800003C60700135785008507318F0607369779
:101290001316850003570700420641823345C700F5
:1012A000E9BF73700454930740597390F7557390D6
:1012B0000755930780027390375573501055930765
:1012C000F0037390775473501054A16773B01754A0
:1012D000916773B01754130700107330A7547370DD
:1012E00024547370345473F03054737028547370F2
:1012F00038547370215473E020541307A02C7310DA
:101300002755735013417370225405677320075497
:1013100073B00754896773A00754737002547370D5
:10132000015473E0005473504054828073E0100005
:101330007360110073601200736014007360180012
:101340009307000273A017009307000873A017000B
:101350001307004073201700736012021307000484
:101360007320170373A017037360110373500000F9
:10137000735000037370140673601206828073F05A
:10138000100373E00040896773A0174073707140C9
:1013900073E07040828073F0001A8567938707803E
:1013A00073A017069305004073B0150605677320F8
:1013B0001706130700027320071A7370081A130622
:1013C00000087320061A9306000473B0061A7360AF
:1013D000111A7360141A73B0171A73A0151A9307B1
:1013E000002073B0171A9305001073A0151A7330FC
:1013F000161A73A0161A7330171A7360181A73A08E
:10140000071A7370041A7370241A7360011A7370C8
:10141000021A73D0301A73E0001A8280F327201A60
:1014200093F7070289CB7310451AF327201AA18B73
:10143000EDDF7370241A8280011122CC1305057030
:10144000096406CE26CA4AC84EC63289AE89B68419
:1014500013040430EFF09FFC33858900EFF01FFC8C
:1014600013050970EFF09FFB33858400EFF01FFB3D
:10147000F24062442392011AD2444249B2490561C2
:10148000828085472386F11E83C6211E1387211E75
:10149000639F060E83470700850793F7F70F230026
:1014A000F70083C6111E8D471387111E63E6D70E02
:1014B00083470700850793F7F70F2300F70083C6DC
:1014C000011EA1471387011E63EED70C8347070057
:1014D000850793F7F70F2300F70083C6F11DC9476F
:1014E0001387F11D63E6D70C83470700850793F741
:1014F000F70F2300F70083C6E11D9307000313874E
:10150000E11D63EDD70A83470700850793F7F70FBF
:101510002300F70083C6D11D930720061387D11D32
:1015200063E4D70A83470700850793F7F70F230083
:10153000F70083C6C11D9307600C1387C11D63EBC1
:10154000D70883470700850793F7F70F2300F700B5
:1015500083D6811A9307201F1387811A63E2D70865
:10156000835707008507C207C1832310F70083D67E
:10157000611A9307603E1387611A63E9D7068357A0
:1015800007008507C207C1832310F70082802381EB
:10159000011EA385F11E31B7A380011E8547238557
:1015A000F11E31BF2380011E8547A384F11E35B78C
:1015B000A38F011C85472384F11E35BF238F011C97
:1015C0008547A383F11EB9B7A38E011C85472383EA
:1015D000F11E85B7238E011C8547A382F11E8DBFA6
:1015E0002394011A85472382F11E51B72393011AD0
:1015F0008547A381F11E82809307000273A007062E
:1016000073600806130700087330072213070004ED
:101610007320072273B007227370022273701422A2
:101620007370012273E00022737012227370112212
:10163000737008227370042273E01022C167FD17D3
:10164000739047227390572282809849DC45D44199
:10165000D98FD849D98F9845D98F9841C207C1836E
:10166000558F83D68501558FD98F1D476367A70A8C
:1016700017A700001307072B0A053A95104183D6D8
:1016800005023A96D84D02867390070A7310470AEE
:101690007310370A7390260A73E0000A82807390F1
:1016A000070B7310470B7390260B73E0000B8280BF
:1016B0007390070C7310470C7390260C73E0000CAA
:1016C00082807390070D7310470D7390260D73E0A1
:1016D000000D82807390070E7310470E7390260ED4
:1016E00073E0000E82807390070F7310470F7390A2
:1016F000260F73E0000F828073900710731047105D
:101700007390261073E0001082807390071173109D
:1017100047117390261173E0001182809D4763E2A8
:10172000A70617A700001307E7210A053A951C41F1
:10173000BA97828773E0000A7360010A828073E0BF
:10174000000B7360010B828073E0000C7360010C6E
:10175000828073E0000D7360010D828073E0000EE3
:101760007360010E828073E0000F7360010F82804E
:1017700073E0001073600110828073E000117360E9
:101780000111828089679387A7E52395F11A8280EA
:101790001547AA876362A7061307A0023357A7005D
:1017A000058B0D4539CB7328004E19471545630647
:1017B000E8047390174E83D7A11A13F7F70F73102D
:1017C000074EA1837390074E2395011A7327004E8D
:1017D0009387010498C3010098438D471145631E08
:1017E000F70090C1D4C1F327104E13972701194574
:1017F00063450700054582800D45828001114AC876
:1018000003D9050026CA06CE22CC4EC68D47AA842F
:10181000630CF900CD472380F400F2406244D244C7
:101820004249B249056182802E84EF00301E138840
:10183000810583270800294303C7170083C72700B2
:10184000A207D98F93968700A183DD8E17A700008A
:1018500013078716C206C1823A868147BA85835824
:1018600006006397D806B146B387D702AE9783C602
:101870002700758D25C503C6611F85466305D60003
:1018800083C73700A1CF238004000325080029481F
:101890008347250083461500A207D58F93968700BE
:1018A000A183DD8EC206C182814703560700631AF9
:1018B000D6023147B387E7020D05AE9783C95700BB
:1018C0009C47829705E9930720022380F40005A036
:1018D0008507C207C1833106E39367F893071003B6
:1018E0001DBF8507C207C1833107E39007FD2310A1
:1018F000240125B713893900DDBF01114EC6938934
:10190000810583A7090022CC26CA4AC806CE03C790
:10191000170083C727002E892A84A207D98F9394A2
:101920008700A183DD8CEF00700E97A700009387DE
:10193000670683D60700C204C18083C5611F0147C3
:10194000638D960083D6C70005476388960083D6CB
:1019500087010D47639396000947B146B306D70246
:10196000BE9683C6460089C683D6E11A898AB9C65F
:101970008D46630CD706B146B306D702BE9603C6A2
:101980002600718D3DC105466385C50083C63600BE
:10199000A9CEB1463307D702BA970357090083C6C9
:1019A000570075171377F70F6386E600CD472300BE
