:100000006F0040206F0080216F0020236F0060246C
:100010006F00A0256F00E02D6F0000346F00603985
:100020006F00203C6F0000406F00C0426F00C04670
:100030006F00C0486F00C04D6F00004F6F00405010
:100040006F0000566F00C0586F00805B6F00405E0D
:100050006F0000616F00C0636F0080666F00806694
:100060006F0020686F00206A6F00606B6F00E06FA8
:100070006F0040746F0040766F00407A6F00C07E62
:100080006F00E0026F00D0126F00200809CA8322BF
:10009000050023A055007116110591056DFA8280A7
:1000A00011C623A005007116910565FE828017A573
:1000B00000001305A57B970500109385A5F417068E
:1000C0000000130666F4D93717A500001305055381
:1000D00097050020938505F317060000130686197F
:1000E0007537970500209385E5181746000013061D
:1000F000A6C37D37178100201301C1E097010020BE
:1001000093814117EF00701F01A073002030FFFFA3
:10011000FFFFFFFFFFFFFFFFFFFFFFFFFFFFFFFFEF
:10012000FFFFFFFFFFFFFFFFFFFFFFFFFFFFFFFFDF
:10013000FFFFFFFFFFFFFFFFFFFFFFFFFFFFFFFFCF
:10014000FFFFFFFFFFFFFFFFFFFFFFFFFFFFFFFFBF
:10015000FFFFFFFFFFFFFFFFFFFFFFFFFFFFFFFFAF
:10016000FFFFFFFFFFFFFFFFFFFFFFFFFFFFFFFF9F
:10017000FFFFFFFFFFFFFFFFFFFFFFFFFFFFFFFF8F
:10018000FFFFFFFFFFFFFFFFFFFFFFFFFFFFFFFF7F
:10019000FFFFFFFFFFFFFFFFFFFFFFFFFFFFFFFF6F
:1001A000FFFFFFFFFFFFFFFFFFFFFFFFFFFFFFFF5F
:1001B000FFFFFFFFFFFFFFFFFFFFFFFFFFFFFFFF4F
:1001C000FFFFFFFFFFFFFFFFFFFFFFFFFFFFFFFF3F
:1001D000FFFFFFFFFFFFFFFFFFFFFFFFFFFFFFFF2F
:1001E000FFFFFFFFFFFFFFFFFFFFFFFFFFFFFFFF1F
:1001F000FFFFFFFFFFFFFFFFFFFFFFFFFFFFFFFF0F
:100200004242424241113EC6F3277040918B99C34E
:1002100073707240B24741017300203041113EC6F5
:10022000F327404099C79307000873B017547350E1
:100230004040B24741017300203041113EC6F327D0
:100240002040858B99C373F02040B2474101730071
:10025000203041113EC6F3273040858B99C373F09F
:100260003040B247410173002030411136C63AC4D4
:100270003EC2F3275060A18B99C373705460F3277B
:100280005060C18B99C373705860F327506093F727
:10029000070289CB9307000873B017549307000235
:1002A00073B05760F327506093F7072089C793070F
:1002B000002073B05760F327506093F7074089C759
:1002C0009307004073B0576073275060856793169B
:1002D00047019387078063D806001307000873302F
:1002E000175473B05760B2462247924741017300DA
:1002F000203041113EC6F3275060858B99C373F0BF
:100300005060F3275060898B99C373705160F32755
:100310005060918B99C373705260F327506093F7CC
:10032000070489C79307000473B05760F327506030
:1003300093F7070889C79307000873B05760F3273E
:10034000506093F7071089C79307001073B0576088
:10035000B24741017300203041113EC6F32760547B
:10036000C18B99C373706854F3276054898B99C308
:1003700073706154F3276054918B99C37370625406
:10038000F3276054858B99C373F06054F32760544E
:10039000A18B99C373706454F327605493F707409B
:1003A00089C79307004073B06754B2474101730097
:1003B000203041113EC6F3276058C18B99C373703A
:1003C0006858F3276058858B99C373F06058F327FA
:1003D0006058A18B99C373706458B2474101730090
:1003E000203041113EC6F327305493F7070289C7E6
:1003F0009307000273B03754F3273054858B99C3A9
:1004000073F03054F3273054A18B99C37370345474
:10041000F3273054C18B99C373703854B2474101EC
:100420007300203041113EC6F3273058A18B99C389
:1004300073703458F3273058858B99C373F0305854
:10044000F3273058C18B99C373703858B2474101B4
:100450007300203041113EC6F3275050858B89CF61
:100460009307C0077390375073F0415093071010F3
:1004700073B0575073E04150F3275050898B89CBAC
:10048000737046509307202073B0575073604650E6
:10049000B24741017300203041113EC6F327006688
:1004A000858B99C373F00066F3270067858B99C32A
:1004B00073F00067B24741017300203041113EC61E
:1004C000F327100A918B99C37370120AF327100A4D
:1004D000858B99C373F0100AF327100B858B99C392
:1004E00073F0100BF327100B898B99C37370110BEA
:1004F000F327100C858B99C373F0100CF327100CA5
:10050000898B99C37370110CB2474101730020307D
:1005100041113EC6F327000C858B99C373F0000C84
:10052000B24741017300203041113EC6F327000E4F
:10053000858B99C373F0000EB247410173002030E0
:10054000397106DE16DC1ADA1ED82AD62ED432D23B
:1005500036D03ACE3ECC42CA46C872C676C47AC2BB
:100560007EC0F3271044898B89CB9307000473A0C6
:100570000766EF00502873701144F250E252525354
:10058000C2533255A255125682567247E24752481C
:10059000C248324EA24E124F824F2161730020306A
:1005A00041113EC6F3273021918B99C373703221DC
:1005B000F3273021898B99C373703121F3273021C0
:1005C000858B99C373F03021B2474101730020300D
:1005D00041113EC6F3272022918B99C373702222CA
:1005E000F3272022898B99C373702122F3272022BD
:1005F000858B99C373F02022B247410173002030EC
:1006000041113EC6F3272023918B99C37370222397
:10061000F3272023898B99C373702123F327202389
:10062000858B99C373F02023B247410173002030BA
:1006300041113EC6F3273024918B99C37370322445
:10064000F3273024898B99C373703124F327302426
:10065000858B99C373F03024B24741017300203079
:1006600041113EC6F3273025918B99C37370322513
:10067000F3273025898B99C373703125F3273025F3
:10068000858B99C373F03025B24741017300203048
:1006900041113EC6F3272026918B99C37370222601
:1006A000F3272026898B99C373702126F3272026F0
:1006B000858B99C373F02026B24741017300203027
:1006C0007300203041113EC6F327004693F707041C
:1006D00089C79307000473B00746B247410173000E
:1006E000203041113EC6F3270014898B99C37370E3
:1006F0000114F3270014858B99C373F00014B247DB
:1007000041017300203041113EC6F3272019A18B0F
:1007100099C373702419B2474101730020303971B5
:1007200006DE16DC1ADA1ED82AD62ED432D236D0FD
:100730003ACE3ECC42CA46C872C676C47AC27EC0A1
:10074000EF309064F250E2525253C2533255A255E8
:10075000125682567247E2475248C248324EA24E63
:10076000124F824F216173002030397106DE16DC92
:100770001ADA1ED82AD62ED432D236D03ACE3ECC71
:1007800042CA46C872C676C47AC27EC0993FF25049
:10079000E2525253C2533255A255125682567247F4
:1007A000E2475248C248324EA24E124F824F216158
:1007B0007300203041113EC6F3270015898B99C381
:1007C00073700115F3270015858B99C373F000151D
:1007D000B24741017300203041113EC6F327001398
:1007E000A18B8DCBF3271013858B99C373F0101356
:1007F000F3271013898B99C373701113F3272013F8
:10080000A18B99C373702413F3271013918B99C391
:1008100073701213B247410173002030397106DE44
:1008200016DC1ADA1ED82AD62ED432D236D03ACED8
:100830003ECC42CA46C872C676C47AC27EC0EF3089
:10084000104CF250E2525253C2533255A255125636
:1008500082567247E2475248C248324EA24E124F69
:10086000824F2161730020305D7186C696C49AC2A2
:100870009EC022DE2ADC2EDA32D836D63AD43ED2D8
:1008800042D046CE72CC76CA7AC87EC6F3274020C4
:10089000918B014489CB7370422073600220014523
:1008A000EF10B05A0544F327402093F70707B1CF64
:1008B000F327402093F7070491CF9307000473B008
:1008C000472073600220C167739027200145EF1015
:1008D000D0570544F327402093F7070281CB9307B5
:1008E000000273B047200145EF103056F327402037
:1008F000C18B81CF7370482073600220C1677390F1
:1009000027200145EF1070540544F3274020A18BA8
:1009100089CB73704420C167739027200145EF1085
:10092000D052F327402093F7074099CB930700401C
:1009300073B04720C167739027200145EF10F05036
:10094000732740208567931647019387078063DAF2
:10095000060073B04720C167739027200145EF1050
:10096000D04EF3274020898B89CB0145EF10F04D05
:1009700073704120C1677390272019E4F32740204A
:10098000858B99C3EF10704E7254B640A642164341
:1009900086436255D2554256B25622579257025854
:1009A000F248624ED24E424FB24F61617300203026
:1009B000732710349377F70F238FF10E0D8B8D462D
:1009C000631AD7009107739017349307000473B02C
:1009D000073C01A08907C5BF411106C6912319250F
:1009E000C167FD1773900708C5294923EF30F01E32
:1009F000178500001305858BEF30E03881450145F0
:100A0000EF30E044930710277390074473E01044DD
:100A10009307000B73A007467350324173D0114106
:100A2000735021417350804173D0904173D0C041C5
:100A300073600430B24041016F10902A01110566C5
:100A400081453705003006CEEF70605D17850000E8
:100A50001305C501EF30F03B6800EF3030760546F6
:100A600068008145EF30907685456800EF30D05EB4
:100A7000EF30B005EF10902B0145EF50F0400145ED
:100A8000EF50D02D0145EF605039EF60D06BF24050
:100A90000561828083A7010789EB411106C6EF40FB
:100AA0000027B24041016F40E0058280411106C637
:100AB000EF304067EF30C060EF30006DEF30007313
:100AC000EF303015B24041016F60704B411106C6E6
:100AD000EF101069B24041016F10F046F32740203B
:100AE000C207C1832397F10E13D7E700B1838D8B23
:100AF0002396E10E2395F10E8280797106D622D4D9
:100B000026D24AD04ECE52CC56CA5AC85EC673E0E0
:100B1000100073E00000930700097390174C9307CF
:100B200020067390174C9567938757557390074825
:100B30008967938727227390074823A60102B7A7E6
:100B400007001387C1029387F711144363FAD72470
:100B500073F0E0FFB717F00003A687FF83A6C7FF77
:100B60009387010090C3D4C3F32700FF23A4F102AD
:100B7000F32740FF23A2F102F32750FF23A0F10245
:100B8000F32780FF23AEF100F327C0FF23ACF10071
:100B9000F327F0FF23AAF100B78700201384810315
:100BA000938707F01CC001000100A1450145EF102B
:100BB000A00D938401059305000288C0EF10A030BA
:100BC0001345F5FF88C0930520032145EF10C00BA6
:100BD0009384C1049305000288C0EF10C02E134512
:100BE000F5FF88C0A1451305A003EF10E009938429
:100BF00081049305000288C0EF10E02C1345F5FF37
:100C000088C09305200313052004EF10E0079384A8
:100C100041049305000288C0EF10E02A1C401345F0
:100C2000F5FF88C083C6070013073005639EE616EC
:100C300003C71700130640059376F70F6316C71610
:100C400003C62700130710046310E61603C6370017
:100C500013079005631AE61403C647001307200420
:100C60006314E61403C757009305F0041376F70FD7
:100C7000631CB71203C767006318C71203C7770066
:100C80006314D712238007001C40A38007001C4078
:100C9000238107001C40A38107001C40238207001A
:100CA000A382070023830700A38307008547A38F40
:100CB000F10E73505030736004304933313B83C7B9
:100CC000F10FA1C7A38F010EEF00307F0945EF1090
:100CD000F00A9387810641472380E7000947A380F4
:100CE000E7002385010613072003A381E70023867D
:100CF0000106130780FCA382E7009945130700FB58
:100D000001452383E700EF10502F138401119384D2
:100D1000F1101389E1109389D110138AC110938ABD
:100D2000B110138BA110938B91108347040081C7DE
:100D300095332388011083C7040089C7EF50B07D25
:100D4000A38701108347090089C7EF50E05D23871F
:100D5000011083C7090081C7913BA3860110834717
:100D60000A0081C7A5332386011083C70A0099C3EF
:100D7000A385011083470B0099C32385011083C706
:100D80000B0081C7A13BA384011083C7811099C3C5
:100D90002384011083C77110C9DBA383011071B7CD
:100DA0001443850614C355B3A38F010EB167B7A6CC
:100DB000030093870711E11623AAF10223A8D102A9
:100DC00003C60700138781002300C70003C617006E
:100DD000A300C70003C627002301C70003C63700CE
:100DE000A301C70003C647002302C70003C657007C
:100DF000A302C70003C667002303C70003C677002A
:100E0000A303C70003C70700130610041375F70FE9
:100E1000E311C7EA03C71700130600059375F70F20
:100E2000E319C7E803C727001376F70FE313B7E802
:100E300083C5370013078004E39DE5E683C54700BB
:100E400013075004E397E5E603C757009375F70FC0
:100E5000E311A7E603C7670093074004E31BF7E429
:100E600083C70600E397B7E483C7160013F7F70FAD
:100E7000E391C7E483C72600E39DE7E2B68783C614
:100E800036001307C004E396E6E283C64700130763
:100E9000F005E390E6E283C6570013075004E39A97
:100EA000E6E083C667001307E004E394E6E003C7C7
:100EB000770093074004E31EF7DE73F0104473706D
:100EC0000430B16713870101938707081CC31C43D3
:100ED000829701A0014582809307004073A03701EB
:100EE000896773A0370173E030011307000873208E
:100EF0003701916773A037029307000473A037038B
:100F000089679387778173A017669307303373904F
:100F100027667360026673700166732007668280BD
:100F20009307000873B007629307000473A0076279
:100F300073E008628280AA87AA959776000093865C
:100F4000A63B32856393B700828003C60700135720
:100F500085008507318F06073697131685000357DE
:100F60000700420641823345C700E9BF737004544D
:100F70009307007D7390F755739007559307800290
:100F800073903755735010559307F003739077544F
:100F900073501054A16773B01754916773B017540E
:100FA000737024547370345473F030547370285435
:100FB000737038547360215473F020549307803E4B
:100FC00073902755735013417370225473700154FA
:100FD00073F0005473504054B707003005672393F3
:100FE000E70A828073E01000736011007350000004
:100FF00073E00000828085472388F11083C661106A
:1010000013876110639F060E83470700850793F7D8
:10101000F70F2300F70083C651108D471387511037
:1010200063E6D70E83470700850793F7F70F230082
:10103000F70083C64110A1471387411063EED70C18
:1010400083470700850793F7F70F2300F70083C650
:101050003110C9471387311063E6D70C8347070067
:10106000850793F7F70F2300F70083C62110930736
:1010700000031387211063EDD70A83470700850714
:1010800093F7F70F2300F70083C61110930720068C
:101090001387111063E4D70A83470700850793F786
:1010A000F70F2300F70083C601109307600C138726
:1010B000011063EBD70883470700850793F7F70F05
:1010C0002300F70083D6210E9307201F1387210EDC
:1010D00063E2D708835707008507C207C18323103F
:1010E000F70083D6010E9307603E1387010E63E974
:1010F000D706835707008507C207C1832310F7006F
:10110000828023830110A387F11031B7A3820110DD
:1011100085472387F11031BF238201108547A386BD
:10112000F11035B7A381011085472386F11035BF33
:10113000238101108547A385F110B9B7A380011061
:1011400085472385F11085B7238001108547A38447
:10115000F1108DBF2391010E85472384F11051B703
:101160002390010E8547A383F110828089679387BE
:10117000A7F52392F10E828089679387A7E52392D2
:10118000F10E82801547AA876362A7061307A002A3
:101190003357A700058B0D4539CB7328004E1947EF
:1011A00015456306E8047390174E83D7410E13F775
:1011B000F70F7310074EA1837390074E2392010E11
:1011C0007327004E9387C10398C3010098438D474E
:1011D0001145631EF70090C1D4C1F327104E139739
:1011E0002701194563450700054582800D4582802A
:1011F00001114AC803D9050026CA06CE22CC4EC624
:101200008D47AA84630CF900CD472380F400F24097
:101210006244D2444249B249056182802E84EF1073
:1012200040361388410783270800254303C717006A
:1012300083C72700A207D98F93968700A183DD8EED
:101240001777000013070735C206C1823A86814727
:10125000BA85835806006397D806B146B387D7028C
:10126000AE9783C62700758D25C503C6E111854657
:101270006305D60083C73700A1CF23800400032570
:10128000080025488347250083461500A207D58F0F
:1012900093968700A183DD8EC206C18281470356E3
:1012A0000700631AD6023147B387E7020D05AE97F0
:1012B00083C957009C47829705E993072002238042
:1012C000F40005A08507C207C1833106E39367F8E0
:1012D000930710031DBF8507C207C1833107E39041
:1012E00007FD2310240125B713893900DDBF011143
:1012F0004EC69389410783A7090022CC26CA4AC853
:1013000006CE03C7170083C727002E892A84A207A9
:10131000D98F93948700A183DD8CEF108026977777
:1013200000009387E72483D60700C204C18083C5E9
:10133000E1110147638D960083D6C7000547638896
:10134000960083D687010D47639396000947B146FF
:10135000B306D702BE9683C6460089C683D6810EE1
:10136000898AB9C68D46630CD706B146B306D70243
:10137000BE9603C62600718D3DC105466385C50036
:1013800083C63600A9CEB1463307D702BA970357B2
:10139000090083C6570075171377F70F6386E600B9
:1013A000CD472300F4002DA003D7810E098B01E760
:1013B00093073003FDB703A509009C470D058297ED
:1013C0009307200779DD230004008D472310F900DF
:1013D000F2406244D2444249B24905618280930797
:1013E0001003C1B72300050082802300050082801E
:1013F000411122C426C206C62A84AE84EF106018AA
:1014000005479307E007630CE502EF00100B094561
:10141000EF10C016938741079843930620032301DA
:1014200007009843A301D7009C43130780FC238245
:101430000700A382E70099472390F4008147230027
:10144000F400B2402244924441018280411122C4FE
:1014500026C206C62A84AE84EF10A012094793075D
:10146000E007630AE5021145EF1040119387410739
:10147000984393062003230107009843A301D70054
:101480009C43130780FC23820700A382E70099474F
:101490002390F40081472300F400B2402244924498
:1014A00041018280938741079843411106C6830614
:1014B000170063C106042301070098439306200325
:1014C000A301D7009C43130780FCA382E70023827B
:1014D0000700194781472390E5002300F500EF102E
:1014E000400A8947631CF500B240954723A8F106DE
:1014F0004101828001479307F00FF1BFB2400545DB
:1015000041016F10A00783A741078387170063D0AD
:10151000070201479307F00F2390E5002300F50031
:10152000854723A8F10695472381F1128280094758
:101530008147DDB783A741078387170063D0070280
:1015400001479307F00F2390E5002300F50089473A
:1015500023A8F10695472381F1128280094781472C
:10156000DDB72300050082802300050082808947C3
:101570002390F500230005008280828003D70500B8
:10158000011126CA06CE22CC4AC84EC652C456C243
:10159000AD47AA846306F700CD472380F400D1A8A5
:1015A0009389810E83D70900898B638B0710138978
:1015B00041078327090003C717006310071003C7FB
:1015C000270093074004631AF70E23000500032742
:1015D00009002E84138AC1058347370083464700DC
:1015E000938A8105E207C206B697834667000146E3
:1015F000B69783465700A2063385D7008347770006
:10160000834687002320AA00E207C206B6978346D6
:10161000A70003479700B6972207B385E70023A0EA
:10162000BA00EF00B06639ED93072008238BF11064
:1016300083C704009DEF83D7090093E70708239031
:10164000F9008547A38DF110A38AF11083270900C3
:1016500013070002A380E7008327090021472381A5
:10166000E700832709000947A381E700914723107A
:10167000F400F2406244D2444249B249224A924ABA
:101680000561828083A50A0003250A000546EF0054
:10169000F05F01ED83D709007D771307F77FF98F9E
:1016A0002390F9009307900851B783A50A000325FA
:1016B0000A000946EF00905D25D993071003F1BD9C
:1016C00093073003D9BD797126D25EC693074002D5
:1016D00006D622D44AD04ECE52CC56CA5AC862C47C
:1016E00066C22300F5009384810E83DB040093F728
:1016F0000B08D1C383CC611193072008AA892E89D6
:101700006386FC00930790086397FC06138C4107DF
:10171000032A0C00938A511183C70A0003471A0059
:101720006308F706FD1793F7F70F6312F70483C7F3
:10173000B11195EF83C7A111A1CF035709008947C4
:1017400097F5FF1F938505C6791742074183939646
:101750000701C18263F4E616B306FA0085073386F3
:10176000B70083C606000346F6FFE302D6FE9307E2
:1017700030072380F900B250225492540259F249A2
:10178000624AD24A424BB24B224C924C4561828013
:1017900003540900D28517F5FF1F1305A5C0228643
:1017A000EF60701293072008138BC1056393FC064A
:1017B000791483250B0042044180228613052A00F8
:1017C0002D2C83270B00A2972320FB0083D7040036
:1017D0004DE193E707042390F40083270C00238155
:1017E000070089472310F90081472380F900E1E7CA
:1017F00003C70A009306F00F6305D7000507937728
:10180000F70F2380FA008547238DF110A38D011077
:101810009DB703270B00B706001093071003E3667C
:10182000D7FC791413150401B71600104181938673
:101830000680898EE3EBE6FAE31985FA93FB0B0445
:10184000638D0B02814709A8BE9503C62500B30628
:10185000F70085072380C60083250C00E3E6A7FE7A
:10186000814601468547637BA602639BF60083D7CA
:10187000040093F7F7FB2390F40093072007B5B714
:10188000B306C7003388C50083C606000348280096
:101890000506B3860641B336D000F1B783D70400FE
:1018A000E9FA329793E707042320EB002390F40032
:1018B000238105003DB7238D011075BD23010A006A
:1018C00089472310F9002380090075B51387810E1D
:1018D000835707009306400213F6070815CA93F6CC
:1018E000070499CA03C66111930620086316D6003F
:1018F00093E707042310F70083570700814693F707
:10190000F7F72310F700238B011085472390F5008C
:101910002300D50082805D71A2C486C6A6C2CAC05B
:101920004EDE52DC56DA5AD85ED662D466D26AD01F
:101930006ECE09472A84894763E3E500AE87F9172D
:10194000B20593F9F70FB38485000149938D4107E0
:10195000930A8007130B1003930BF007130C00037B
:10196000B70C1000054A056D63649400014581A819
:1019700005091379F90F6374390383A70D002381D7
:10198000570183A70D00A380670183A70D00238063
:10199000770173101C207360042073600120EFF046
:1019A000EFFCB30594010146814615452EC6EFF0C4
:1019B0006FFD1375F50FB245630245030545B6404B
:1019C000264496440649F259625AD25A425BB25BA7
:1019D000225C925C025DF24D616182802EC6EFF066
:1019E000EFF8B245014681460D45EFF0AFF91375AA
:1019F000F50FE31545FD6A9485BF01114AC83369A7
:101A0000B60006CE22CC26CA4EC613797900631DD5
:101A100009048567AA89094563ECC700B707100068
:101A2000935436003384F500636B9900014501003F
:101A3000F2406244D2444249B24905618280EFF0EB
:101A4000EFF293173900CE979043D443A285054512
:101A5000EFF04FF31375F50F854721046314F5007C
:101A60000509D9B70545E1B70945D9B7411106C6FA
:101A700022C426C24AC0AE842A89EFF02FEF014665
:101A80008146B705F0001545EFF0CFEF1374F50F61
:101A900085476309F4000545B24022449244024957
:101AA00041018280EFF08FEC01468146B705F000DE
:101AB0000D45EFF02FED1375F50FE31E85FCEFF0EC
:101AC000EFEAB715F0004A86A686E1150545EFF066
:101AD0006FEB1375F50F7D153335A00075BFB71784
:101AE000F000E11798434111DC4322C406C6138479
:101AF000010018C05CC0B7071000938707209C4303
:101B000013874106938601061CC3B7C71000F1175F
:101B10009C439CC21843B7474242938727246315CE
:101B2000F7049C426392E7041040B7B7AAF0544010
:101B30009387A7AA6318F6009767000093878772B8
:101B40006306D60097670000938747729843DC438B
:101B500018C05CC008404C40113FB717F000E117B7
:101B60009843DC4318C05CC00100B24022444101EC
:101B700082803307B500AD4763DCE700054582800E
:101B80000545F2406244D2444249B249056182802F
:101B9000011126CA3205B707E0009394C50022CC94
:101BA000FD143304F5004AC84EC606CEA29405497A
:101BB0008569636494000145E9B7EFF0EFDB014606
:101BC0008146A2851545EFF0EFDB1375F50FE3199C
:101BD00025FBEFF06FDA01468146A2850D45EFF057
:101BE0006FDA1375F50FE31D25F94E94D9B701117E
:101BF0004AC83369B60006CE22CC26CA4EC613792F
:101C00007900631A09048567AA89094563EBC7004F
:101C1000B707E000935436003384F500636A9900F7
:101C20000145F2406244D2444249B2490561828092
:101C3000EFF08FD493173900CE979043D443A28509
:101C40000545EFF02FD41375F50F85472104631672
:101C5000F5000509E1B70945E9B70545D9B7B70763
:101C6000E000BE9581471397070141836364C70075
:101C7000014582803387F500834607003307F5006E
:101C800085072300D700C5B7930780377390172FB8
:101C9000A16773A0172F7360122F7310352FFD15D6
:101CA0007390452F73E0102FF327102F13974701E0
:101CB000E34C07FE7325202F82801387810E835704
:101CC000070093F7A7E093E727002310F70023937B
:101CD000010EA3890110238C0110238B011085476D
:101CE000A38AF110238A011023AA010423A001046E
:101CF000A38F011082801387810EA3880110835760
:101D0000070093F7F7DF2310F70045BF9307100490
:101D10002300F500A300F500054582804111294606
:101D20009305100406C6EF60802FB24005454101BF
:101D30008280411141469305100406C6EF60202EB3
:101D4000B240054541018280930710042300F5004D
:101D500005458280930710042300F5000545828025
:101D6000411122C406C62A84EF00B0010947AA87A0
:101D70006309E5001147630DE500054701456395DB
:101D8000E7002300F4000545B2402244410182806F
:101D90008D47C5BFA5BF411125469305100406C652
:101DA000EF60E027B240054541018280797122D47D
:101DB00061462A849775000093858584280006D69D
:101DC000EF60603011C461462C002285EF60A02FC7
:101DD000B2502254054545618280797122D426D2C1
:101DE0004AD04ECE52CC56CA06D6FD571384810E29
:101DF000938A91112380FA00835704002A892E8A3E
:101E000093F737FD93E70705B2892310F400CD2B34
:101E10009384410755C5976700009387A74598436A
:101E2000DC43854501453AC43EC6A13305E521465C
:101E3000814528006D3B639D090409ED9305E0028F
:101E40003165EFF05FAD25E18357040093E747006C
:101E50002310F40091472310FA009C40130710034D
:101E60002380E7009C400547A380E7009C407D5706
:101E70002381E7009C40A381070023000900B250A2
:101E8000225492540259F249624AD24A45618280F0
:101E900071F1B1450145EFF01FA811E5835704002A
:101EA00093E7870075B795472380FA0093072007CB
:101EB0002300F9009C40130710032380E700C1B7FB
:101EC000E39909FCA5BF2A87814701451386F5FFE1
:101ED000054863E3B7008280B356F700858A91C650
:101EE000B306F640B316D800558D850793F7F70F64
:101EF000CDB79386810E83D7060003A7410713F65B
:101F0000070421CA13F6470021C2ED9B2390F60077
:101F10008347C7008346D70023020700E207C206B3
:101F2000B6978346F700B6978346E700A206B697B2
:101F300023AAF1042393010E238C011095472390CB
:101F4000F50023000500828013F6870071D2DD9B27
:101F500075BF9547238CF1102302F700C1462390EB
:101F6000F500A38BD110230005002393010E82807E
:101F700003D70500011126CA06CE22CC4AC8B147B4
:101F8000AA846317F70603A7410703444700834762
:101F90005700834697006204C2073E948347770048
:101FA000C2062E893E94834767000146A2073E94ED
:101FB000834787002285E207B6978346B700034729
:101FC000A700B6972207B385E7002EC6C1211DC919
:101FD000B245094622855D2901ED9386810E83D79E
:101FE00006007D777D17F98F2390F600054625A022
:101FF000930710032380F400F2406244D244424924
:10200000056182801387810E83570700014693F78D
:10201000F7BF2310F7006244F240CA852685424983
:10202000D24405615DBB79714ECE9389410783A788
:10203000090022D406D626D24AD003C7270083C778
:1020400037002A84A207D98F13978700A183D98FDD
:10205000C20703D7610EC1831DC76306F70293074A
:1020600010022300F400B250225492540259F24953
:10207000456182808504C204C1803107639CC4002D
:1020800093071003F9BF176700001307E746814461
:102090003A89154683560700E39EF6FC03C7E11113
:1020A00089476319F700B147B387F402CA9783C71A
:1020B0003700F9D72EC6F121B147B387F402CA978A
:1020C00003C72700698F4DDF83C74700B24589C723
:1020D00083D7810E898BA5CFB146B386D40283A75F
:1020E00009000147314803C61700CA9603C35600CA
:1020F00093170701C18363F467069308170033073A
:1021000007039C46BA9703C707006310C70403D7A9
:10211000050083D647006362D70483D6670063EE69
:10212000E60203C71700798D15C503C7270009C745
:1021300003D7810E098B01CF22852254B2509254CD
:102140000259F2499C4745618287468755B79307F4
:10215000300301BF9307E00729B7CD4719B7C94737
:1021600009B783A74107238207002300050095478D
:102170002390F5008280011106CE230005009547CB
:102180002390F50003A741072302F700976700009B
:102190009387C70E9843DC43854501453AC43EC644
:1021A000EFF03F9D09E9214681452800EFF03FA46B
:1021B00019E1EFF0DF92F2400561828083A74107C9
:1021C00083C647001307E0046398E60483C65700FC
:1021D000130720046392E60403C7670093074005D2
:1021E000631CF70203C7811183C79111D98F03C7FD
:1021F0006111D98F89EF2300050091472390F500E5
:10220000B7675A5A9387A7A523A0F1048280930742
:1022100020022300F5008280C947E5BF83D6050070
:1022200041114AC006C622C426C289472A894D47A1
:10223000639CF6081384810E83570400AE8413F761
:10224000170035E33D268357040013F707200DC31D
:102250001307700335C99386111103C7060093F75E
:10226000F7DF2310F4007D172380E6002389011097
:10227000EF50E07317270020130707D18947138514
:10228000410749461441834507000507BE96238050
:10229000B6008507E398C7FE8357040093E717004D
:1022A0002310F40031A8898B1386410795C789470D
:1022B000C94618423E97230007008507E39BD7FED7
:1022C000C9472390F40001472300E900B2402244AB
:1022D0009244024941018280172700201307C7CA90
:1022E0008947C9451442034507000507BE96238068
:1022F000A6008507E398B7FE1387111183470700EF
:10230000850793F7F70F2300F7000947E37AF7FAF9
:102310008357040009651305057193E7072023100F
:10232000F40085472389F1103D2C83570400F99B65
:1023300085BF03D70500011126CA06CE22CC4AC8A4
:102340004EC652C4C947AA84630DF700CD47238007
:10235000F400F2406244D2444249B249224A056143
:1023600082801384810E0359040085471379390054
:102370006305F90093074002D9BF138A410703257B
:102380000A00AE890905EF50C077EF50006E0DC509
:102390008357040093E727002310F40083270A00E3
:1023A0008387170063D40700FD5755B789472390EB
:1023B000F9002380040071BF1387111183470700C0
:1023C0008946850793F7F70F2300F700130750039B
:1023D00063F0F6028357040009651305057193E75E
:1023E00007202310F40023892111B52A1307600365
:1023F0002380E40083570400F99B2310F40091BF6D
:10240000011121468145280006CEEFF05F85814706
:1024100001EDA247B24637B7AAAA1307A7AAB98FF8
:10242000358FD98F93B71700F2403E8505618280C2
:102430000347050097F7FF1F9387C7F62380E70040
:10244000034715000145A380E7008280034705008C
:1024500097F7FF1F938707F52381E70003471500D0
:102460000145A381E700828017F7FF1F130787F359
:102470008147A5463306F500034606008507050794
:10248000A301C700E398D7FE014582801307F5FF3B
:10249000BA95AA8763E4A504094705456361C704A3
:1024A0000E069766000093866617B29683C84600AC
:1024B00001471376F70F6374160311E1828090428F
:1024C0001318370042960328060063E707015042BD
:1024D0006364F6003335B6000507E1BF0545828029
:1024E0008567FD1773906720F3275020370700504A
:1024F000BA9723AAF10673E000209307001073A097
:102500000720A1679387E703739077207360082003
:102510009307000273A00720B7D7124B938727CBEE
:1025200073903720C167739027208280239C010E0F
:1025300005472380E112239B010E2399010E916729
:10254000938787A94111239AF10E06C6A380E11251
:10255000A38E011023A8010623810112EFF0AFF929
:10256000B24041018DA1D1473355F502239BA10E05
:10257000828003D5610F133515008280A380A112DC
:10258000828003C511128280AD47138701128346F2
:10259000070099E2FD17E5FF85472300F7001307C1
:1025A000F00F6312E50203C71112630BF7009307E4
:1025B000A00F239CF10E9167938787A9239AF10EB0
:1025C000239EB10E8280238001122399010E9386EF
:1025D00041079C420DE103C70700136707042380EE
:1025E000E7000567AE8763E4E5008567FD1793950F
:1025F0000701C181F1B713078007631AE50203C61B
:102600000700138781062300C70003C61700A30035
:10261000C70003C627002301C70003C63700A30174
:10262000C700130720032399E10E2398010E23818D
:10263000A7009C428D4503C70700A380E7009C428A
:102640001307F0072380E700A5BF83D7210F89E791
:102650009307A00F239CF10E85472380F112916709
:10266000938787A9239AF10E8280011106CE22CC8E
:1026700026CA4AC8F32710209384A10F138431126D
:10268000C207D183A68522857D592390F4002300BB
:102690002401B52E6C000145EF10301C3DE132479E
:1026A00089476310F70685472380F1122300240130
:1026B000F3274020C207C1832397F10E13D7E70009
:1026C0002396E10E13D7C700A5830D8B858B239529
:1026D000E10E238EF11073F04020034704009307AE
:1026E000F00F6316F702F3270020A18B99C37370D4
:1026F000042073600220F2406244D24442490561E2
:10270000828083D5040003450400BD3D55B783D7BF
:10271000C10F9306800792076319D70073901720A3
:102720007360042073600120F9B773270020218BA8
:1027300009C7737004207360022073901720C1676B
:1027400073902720C5B7138721128347070089C7D5
:10275000FD172300F7008280411106C683A70107F9
:1027600015476396E70223A80106AD4713870112B8
:102770008346070099E2FD17E5FF85472300F70030
:10278000EFE0BFDF737004307360114D01A00547A7
:102790006396E70223A80106AD471387011283461B
:1027A000070099E2FD17E5FF85472300F7007370E6
:1027B0000430EFE09FDC7360114D01A00947639680
:1027C000E70223A80106AD471387011283460700DD
:1027D00099E2FD17E5FF85472300F7007370043089
:1027E000EFE0BFD97360114D01A00D476394E7007E
:1027F00023A80106B24041018280AD471387011230
:102800008346070099E2FD17E5FF0548230007010D
:1028100093878106138741079308F00F104383C6FF
:102820000700631C150783C81112638B0801130886
:10283000A00F239C010F1168130888A9239A010F88
:102840002300D600144303C61700A380C600144318
:1028500003C627002381C600144303C63700A381A3
:10286000C600184383C647002302D70083C657001B
:10287000A302D70083C767002303F700239EB10E8E
:102880009307F00F6312F50AF3270020A18B99C379
:1028900073700420736002208280238001122399C8
:1028A000010E39ED2300D600144303C61700A380A0
:1028B000C600144303C627002381C600144303C681
:1028C0003700A381C600184383C647002302D70000
:1028D00083C65700A302D70083C767002303F7000E
:1028E0008347070093E707042300F7000567AE87D7
:1028F00063E4E5008567FD1793950701C181BDBFBE
:10290000930780076316F500930720032399F10EC0
:102910002301A6001C438D45A380D7001C43130749
:10292000F0072380E70099BF93078007631BF5003A
:1029300093070003739017207360042073600120D5
:102940008280F3270020A18B89C7737004207360F5
:102950000220920573901520C16773902720F9BF5C
:102960001387210F83570700A9C7FD17C207C1832B
:102970002310F7009DEF1387010F835707004111C4
:1029800006C6A54663E4F60285072310F7008145D5
:10299000130580079D351387410F8357070081C7B3
:1029A000FD172310F700B240410182809145014597
:1029B000D5B71387410F8357070089C7FD17231029
:1029C000F700828082804111130660089305F00FA2
:1029D00017F5FF1F1305059E06C6EF5040641767E5
:1029E0000000130727C5814797F5FF1F9385859C36
:1029F0003146834607004107AE962380F6008507DF
:102A000093F7F70FE397C7FEB2404101828041116F
:102A100026C2938441079C4022C406C64AC083C78D
:102A2000070017F7FF1F1307E79883C6F1113E97BA
:102A3000034707002A841386F1119DC293061003F1
:102A40006384D7029306E0036380D70293071002E2
:102A50002300F400B24022449244024941018280A2
:102A60009306500863E5F6029307F00F6301F7023F
:102A700003C5E1118946976700009387A7BB12073A
:102A8000631BD500B386E70083C6360089E6C547D9
:102A90002300F40059A8BA9703C7270023000400B5
:102AA00083C61112758F5DCF03D7050083C647001B
:102AB0006365D70A83D6670063E1E60A03C517009A
:102AC00035C103A8C7009C4083C61700814793F611
:102AD000F60713973700429703490700638D2601D5
:102AE000850793F7F70FE3E6A7FE834706008DCB34
:102AF0009307100271BF83C6E11189476395F60001
:102B00008347170091CF5C43228582979C4083C7FF
:102B10001700635CF9008347040081EBFD578DBF0C
:102B2000C947BDB79C472285829703C7E1118947F2
:102B3000E312F7F28347040085461387F7FE137705
:102B4000F70F63FAE600130710036386E700130725
:102B50008007E391E7F0FD57E5BD83470600C9FB19
:102B6000CD473DB79307F00725B72A879767000041
:102B7000938747BE17660000130646BF1305300350
:102B800094436367D700D4438D8E63E3E600014529
:102B9000A107E397C7FE82808280411117F7FF1FCC
:102BA0001307C78922C41443004126C24AC006C67F
:102BB0002E89B284930730036369D400544381475C
:102BC000918E63F486009307300314476366D40044
:102BD0005847058F6376870431676367E40037974A
:102BE0000300058F6374870291EF13F7F70FB306A5
:102BF000F400636F97000145B240224492440249B9
:102C000041018280A68522858D377DF58147F1BF00
:102C100083C606003307F90085072300D700F1B704
:102C2000B167E365F4FE81475DBF411122C426C24E
:102C30004AC006C603A78107B717002000412E89A6
:102C4000B284631BF700B777FCFFA297056763F5B3
:102C5000E700B787FC1F3E94A685228539370DC54E
:102C6000B240224492440249410182803307F90074
:102C70000347070085072380E60013F7F70FB30625
:102C8000F400E36597FEE9BF8147C5BF1C41379754
:102C900003006395E70023ACF10629A03717002055
:102CA000E38BE7FE0145828083A781071CC12302D5
:102CB0000500828018418147BA956319B7002390B7
:102CC000F60089472300F60001458280034507008E
:102CD0000507AA97C207C183CDB782808147938534
:102CE000C1072147B386B70003C60600B306F50047
:102CF00085072380C600E397E7FE8280814793859E
:102D0000C1072147B306F50003C60600B386B70026
:102D100085072380C600E397E7FE35A119473307EF
:102D2000E50297E7FF1F9387677206059D4617F632
:102D3000FF1F1306268793854112BA977D57A380FC
:102D4000E700175700001307E7552A978347170036
:102D50000347070017E5FF1F13058570B387D702E8
:102D60003307D702C207C1833E977D1742074183CD
:102D70006373F700828093962700B2968CC2B306E5
:102D8000F60023840650B306F5008507C2072380AA
:102D90000600C183F1BF060597570000938787504F
:102DA000AA9783C7170017E8FF1F1308A87FBE95CF
:102DB0009D47B385F50293888550C2983383C80038
:102DC00009CA8347F3FF13052003A9CB954763E89E
:102DD000C7048347130013052003A9E3014531E22B
:102DE0003386E7009D481305200363C9C802944257
:102DF0008A052E988A07C29794C30546630DC700BB
:102E000013861600D0C311466317C7001386260029
:102E10008D0690C7D4C72300E30001458280014599
:102E20008147338EA800034E0E000505F297137EEE
:102E3000F50F93F7F70FE366CEFE5DB71387010931
:102E400083472700834537000346470009476364EB
:102E5000F70493961700175700001307A7443697F7
:102E60000347070063F9E50219476366C702B946DD
:102E7000B386D70217F7FF1F130787D73697034587
:102E8000870005E1138741082300F700A300B7007E
:102E90002301C70082809D472383F1081305200387
:102EA0008280454582809385410803C62500994765
:102EB0001305900263E4C7089386010903C726003F
:102EC00005459307F7FF93F7F70F6377F5009147F1
:102ED000130520036314F70683C70500094813058B
:102EE0002003636DF80413981700175500001305AD
:102EF000653B42950348050083C515001305200373
:102F000063FE050339483388070317F5FF1F1305D0
:102F100025CE429503488500454563110802C84205
:102F200083C6360001112AC42306D1003E85340031
:102F300006CEEFF05FE6F240056182808280B947FD
:102F4000B307F50217F7FF1F130787CABA9783C69F
:102F5000670003C687002384070085062383D70004
:102F60008547631AF6009386511283C7060081C70E
:102F7000FD172380F600B9473305F50285472A97E8
:102F80002300F7008280411126C29384010922C4E4
:102F900003C4240006C6894763EB870222854537B0
:102FA0002285EFF0BFD70604975700009387872F3D
:102FB000A29703C7070083C717000145A381E40058
:102FC0002382F400B2402244924441018280A389CA
:102FD000010813052003FDB7B9473305F50297F73C
:102FE000FF1F9387E7C0AA9703C7670083C68700C0
:102FF0002384B70005072383E7008547639EF50018
:10300000638CB6001387511283470700894663E536
:10301000F60085072300F700828013870109034526
:1030200037000948930730036361A80AB947B3071B
:10303000F50279718345270022D417F4FF1F13048A
:1030400024BB06D626D24AD04ECEA29783C887008C
:1030500099E9F5358147B250225492540259F24908
:103060003E85456182809386F5FF93F6F60F05460F
:1030700093072003E361D6FE9316150097570000CF
:1030800093874722B69783C6070083494700930773
:103090002003E3F2D9FC03495700E36E28FB835475
:1030A0006700D5D86397C8002EC62AC4493DB245EB
:1030B0002245B947B307F502A297A3813701A3823E
:1030C000270123969700093F71B73E858280011141
:1030D00006CE22CC26CA4AC84EC683C721099DCB3C
:1030E0000547130520036391E70497F4FF1F9384BA
:1030F00024B0014489490D4983C784006395370191
:1031000085452285D13D05041374F40FB904E315F8
:1031100024FF11A80145EFF09FE20545EFF03FE2E3
:103120000945EFF0DFE10145F2406244D2444249F3
:10313000B249056182808947A383F11211C1194503
:103140002383A112828041111385010922C406C67E
:10315000EFF0DFB803C7711213840109058B8347B1
:10316000040015E713F7B70F8546631ED7001757FE
:103170000000130767608A07BA979C4382979307FA
:10318000F00F631CF500B240224441018280130716
:103190003002E37EF7FC1305600383471400A300AD
:1031A000A400B2402301F400FD572300F4002244A0
:1031B0001385010941016FF05FB203D521091305A1
:1031C00075DF3335A0003305A0401375F50F8280FD
:1031D00041111946938521091385810806C6EFF030
:1031E000DFA4138781081C4399071CC301E9938658
:1031F0000109DCC283474700A381F600B2404101C8
:1032000082809387010903C6270091461307F6FFC2
:103210001377F70F63E2E602D84383C73700011143
:1032200028009385310906CE3AC42306F100EFF059
:10323000DF96F2400561828013052003828083C7F8
:10324000210913F5870301E52383F1128280130519
:10325000200382809387010903C76112A381E700DD
:103260002382070001458280138581086FF01FA229
:103270000111280006CEEFF03FA3224793870109F2
:10328000F240D8C30347C1000145A381E7000561AF
:1032900082809387010983D5270083D747009386CF
:1032A000410913863109C207DD8D138581086FF04E
:1032B0007FA0411122C406C61384711283D621094E
:1032C0001307902083470400639BE6020547639041
:1032D000E702EFF07F8C0145EFF07FC60545EFF088
:1032E0001FC60945EFF0BFC50145EFF0DFE4854794
:1032F0002300F4000145B240224441018280054789
:103300006385E7001305F00FFDB78D472300F40038
:10331000D5BF938701090947A381E70005472382A9
:10332000E700014582809387810817570000130743
:10333000E74398C323820700314793870109A3819C
:10334000E700130720302392E7002383070001459D
:1033500082809387010903C5270011E9D44383C7FD
:1033600037001387810814C32302F70082801305F6
:1033700020038280411126C29384010922C403C420
:10338000240006C695471305200363EE87000DE071
:1033900093878108984301453A9480C383C74700C7
:1033A000C0C0A381F400B240224492444101828013
:1033B00022869385310913858108EFF01F8769D92B
:1033C000DDB7411122C403C421099307F4FF06C6E7
:1033D00093F7F70F114713052003636FF700228659
:1033E0009385310913858108EFF02FFB11E51387D1
:1033F00081081C43A2971CC3B24022444101828031
:103400009387010983D64700130790201305F00F17
:103410006393E60483C72700054713052003636C05
:10342000F70291E78D47A383F11201458280411194
:1034300006C6EFF06FF60145EFF07FB00545EFF0FF
:103440001FB00945EFF0BFAF0145EFF0DFCEB2404E
:103450000145410182808280130560038280834799
:10346000750003478500B337F0003337E0003E07AF
:10347000BA07D98F034765003337E00036075D8F01
:1034800083475500B337F000B207D98F0347450093
:103490003337E0002E075D8F83472500B337F000F8
:1034A000AA07D98F034735003337E00026075D8F21
:1034B00083470500B337F000A207D98F03471500F3
:1034C0003337E00012075D8F834795000345A50061
:1034D000B337F0008A073335A000D98F06055D8D1C
:1034E00082808347E5000347B500B337F0003337E8
:1034F000E0003A079A07D98F0347F5003337E00019
:1035000016075D8F8347D5000345C500B337F0002C
:1035100092073335A000D98F06055D8D82808347E1
:1035200045013707007EB706FF01E607F98F03570D
:1035300025014207758FD98F0357650103450501A2
:103540001377F73FD98F4167130707C02A05798D95
:103550005D8D8280A14763F1A704B14763F5A7029F
:10356000C14763F4A702D14763F3A702E14763F2BF
:10357000A7029307000263F0A7029307000333B585
:10358000A7003905828025458280294582802D4506
:10359000828031458280354582809757000093872D
:1035A000E7D083C60700D84323A005008147639472
:1035B000F60005458280034807001306C70263151D
:1035C000A80098C101458280850793F7F70F3287DD
:1035D000F9BF81E9054582800545F24062440561F5
:1035E0008280011122CC2E846C0006CE7D376DF5D1
:1035F000B24783C7170089E7F327901C1CC0F1BFAF
:10360000F327901EE5BF01114AC852C406CE22CC52
:1036100026CA4EC60347850193072002B7067F00DE
:103620003307F7025C4D83498502BA9783C4F701DB
:103630002167130707F0A204F98C03C7E70103C44D
:10364000C70103DA07021377F707D98C620437073B
:10365000000F798C03C7B701138927004207758FC4
:10366000598C03C7D70183C7A701598C2167AE07BF
:1036700013070780F98F5D8C83471500A1EBB7070F
:10368000080073A007084A85EFF07FDD7310051C62
:103690004A85EFF01FE57310151C4A85EFF03FE8EF
:1036A0007310651C7310741C7390841C73103A1C87
:1036B0007390A91C9307000873A0071CF240624492
:1036C000D2444249B249224A05618280B7071000BC
:1036D00073A007084A85EFF09FD87310051E4A852E
:1036E000EFF03FE07310151E4A85EFF05FE37310B3
:1036F000651E7310741E7390841E73103A1E7390AF
:10370000A91E9307000873A0071E4DBF834715002D
:10371000834805028146A5CF37080014614E054352
:103720001308082893F7F60F63E817078280B3871A
:10373000660258513E978347E7003316F80073201E
:10374000B61C4C43639505037320C61CF297834E49
:1037500007018A07138F070801469375F60F63EB7D
:10376000D501850693F7F60FE3E317FD82807330EA
:10377000C61CE9BF4C4B931F36000506FE9583AF70
:10378000050023A0F701CC412320BF00F9B7614316
:103790000548370E0014F9B7B387C60358513E9752
:1037A0008347E7003316F3007320B61E4C43639142
:1037B00065027320C61EC297834E07018A07138FC6
:1037C000870301469375F60F63E7D501850699BF18
:1037D0007330C61ECDB74C4B931F36000506FE95C1
:1037E00083AF050023A0F701CC412320BF00D9BF40
:1037F00001114AC852C406CE22CC26CA4EC68347FF
:10380000050003C4E50017EAFF1F130A2A419607C3
:10381000D297A2972A8903C5E70085476303F50C71
:1038200003456600B289AE84EFF0DFD283A789003A
:10383000370600E013D7F7011E07598D93160501CF
:103840001317750113750508C182718F5DC18E074D
:103850008D8313980601175600001306E6FABD8AF9
:10386000B29603C60600834619005D8FB7073F0076
:103870003378F80093078004B307F40283A50900A6
:10388000B5EEB7060050938606103385D700B7060D
:10389000005093864610BE9618C123A0060189C920
:1038A00001CA37050050130585103E95EF40B00161
:1038B0008347090083C6E400054796073306FA00EC
:1038C00036962307E600B69703D64900938707028A
:1038D0008607D2972397C7003317D7007320D71CCA
:1038E0000145F2406244D2444249B249224A05614C
:1038F0008280CA073706FC1FF18FA1BFB7160050A0
:10390000938606A73385D700B7160050938646A73F
:10391000BE9618C123A0060189C901CA37150050F7
:10392000130585A73E95EF40007A8347090083C6BB
:10393000E400054796073306FA00B6973696938754
:1039400007022307E60086073E9A83D7490033170C
:10395000D7002317FA007320D71E59B771716C086E
:1039600022D506D726D34AD14ECF52CD56CB5AC9EF
:103970005EC762C566C36AC1EEDE2A84EFF0FFC18E
:10398000631D050E0A0497E7FF1F93872729A29757
:10399000D84389476313F70E724C83471C00639327
:1039A0000710F329201DB70B0050B7040020938B9C
:1039B0008B10814C614A975A0000938AEAE41309FC
:1039C0000103FD14054433149401B3F78900C9CBF6
:1039D00083460C02814713F6FC0F13F7F70F637F42
:1039E000D70633874703032D4C023A9D03274D002A
:1039F00045EB0347ED006315C70A93878BFF984398
:103A00009387CBFF9C439356770193F6061CC183A3
:103A100093F7F703D58F93F60608BDCE658FB706EB
:103A20000080336BD700BD8BD69783CD07006387AB
:103A30000D006E86DE854A85EF40E0685AD08347E8
:103A40000D002C1008102302F10283470C004AD409
:103A50002316B103A302F102EF00F00C7330241D12
:103A6000850C93070002938B8B04E39DFCF4F327F2
:103A7000401C858B99C373F0401CBA502A549A5449
:103A80000A59FA496A4ADA4A4A4BBA4B2A4C9A4CC2
:103A90000A4DF65D4D6182804983137BF77F61B7E4
:103AA000850725BF732A201FB71C0050938C8CA755
:103AB000014D854A614B975B0000938BEBD4041852
:103AC000B9493399AA01B3772A01D9CB83460C02AD
:103AD00081471376FD0F13F7F70F6371D70833870C
:103AE0006703832D4C02BA9D03A74D0051EB03C71A
:103AF000ED006317C70893878CFF1387CCFF9C43A7
:103B0000184393D67701418393F6061C1377F70386
:103B1000558F93F60608ADC2139437000D80B70792
:103B200000805D8C9377F700DE9703C6070019C607
:103B3000E685268532C6EF400059324622D083C73B
:103B40000D002C1008102302F10283470C0026D42C
:103B50002316C102A302F102EF00E07C7330291F9B
:103B6000050D938C8C04E31E3DF5F327401E858BD9
:103B700089D773F0401E11B7C98313F4F77F5DB77F
:103B8000850791BF39716C0022DC06DE26DA4AD83F
:103B90004ED652D456D25AD05ECE62CC2A84EFF0A2
:103BA000DF9F49E5B247160417E9FF1F130909070C
:103BB00083C71700C1EB732AF01CF32A001D732B77
:103BC000101DB3695A01B3E969014A948144854BD8
:103BD000130C0002B3979B0033F7F90015CF33772E
:103BE000FA0019C373B0F71CB3F6FA0099C273B0A8
:103BF000071DB376FB0099C273B0171D8347E4001D
:103C0000639C770193171400B387274103D5E7041A
:103C10002307040011C3392785040504E39C84FBB2
:103C2000F327401C898B99C37370411CF250625476
:103C3000D2544259B259225A925A025BF24B624C08
:103C400021618280732AF01EF32A001F732B101F3C
:103C5000B3695A01B3E969014A948144854B394CEF
:103C6000B3979B0033F7F90015CF3377FA0019C3E8
:103C700073B0F71EB3F6FA0099C273B0071FB3769C
:103C8000FB0099C273B0171F8347E400639C770160
:103C900093171400B387274103D5E70423070400D3
:103CA00011C3492585040504E39C84FBF327401ECA
:103CB000898BADDF7370411E95BF79716C0022D482
:103CC00006D626D24AD04ECE2A84EFF09F9021ED20
:103CD000B247918BA9CB17E9FF1F130929F493145D
:103CE0002400CA94DC408549638F370313155400C0
:103CF00039051306000281454A95EF4040321315FD
:103D000064001305E5044A95130600048145EF405D
:103D100000312285225423A23401B2509254025918
:103D2000F249456161A5B250225492540259F249B8
:103D30004561828001116C0022CC06CE2A84EFF00E
:103D4000DF8515EDB24783C7170085E3F327401CD5
:103D500093F707088DC79307000873B0471C2285A7
:103D60006244F2408545056199A5F327401E93F70B
:103D7000070891C79307000873B0471ECDB7F240FC
:103D800062440561828025C1011126CA4AC84EC617
:103D900052C456C206CE22CCAA89814417E9FF1F1D
:103DA0001309C9E7930AC002054A83C7090063E300
:103DB000F404B71700509387879B3707AC1F98C34D
:103DC000B71700509387C79B3707080098C38547EC
:103DD0002300F900F2406244D2444249B249224AE7
:103DE000924A05618280854601468145130500059A
:103DF0006FD04F8EB387540303A44900850493F416
:103E0000F40F3E942285EFF01F802285EFF01F9083
:103E10000344040013060002814593172400131580
:103E20005400CA97390523A247014A95B307890070
:103E30001A04238607001304E404EF40401E13060F
:103E40000004814533058900EF40601DB9BF7971D9
:103E500026D206D622D44AD04ECE52CC56CA5AC802
:103E600097E4FF1F938484DB83CA0400854795464B
:103E7000639AFA002E896C002A84EFF00FF22A8AE6
:103E800005C591460D46814513050005EFD08F8489
:103E9000054AB250225492540259F249D24A424B36
:103EA0005285624A45618280B247094B83C7170039
:103EB000C5E36306690763672B059319240063183C
:103EC00009049307000873A0071CC17773B0971CFF
:103ED0001315540039051306000281452695EF405D
:103EE0000014131564001305E5048145130600044E
:103EF0002695EF40C012A69923A269018945228523
:103F00007D2141BF8D476307F9029946A5BF9307FD
:103F1000000873B0071CA69923A2590105A89307AE
:103F2000000273A0171C93172400A6970D47D8C34F
:103F30008D45F1B79307000273B0171CC17773B0BA
:103F4000971C93172400A69723A25701854545BFC8
:103F500063056905636E2B0193192400631A090236
:103F60009307000873A0071EC17773B0971E8DB723
:103F70008D47E31CF9F89307000273B0171EC17751
:103F800073B0971E93172400BE9423A254017DBFE3
:103F90009307000873B0071EBDBF9307000273A00C
:103FA000171E51B7411106C617E7FF1F130707C7B2
:103FB0008346070085476386F60095461946814586
:103FC00029A02E8699E98546194613050005EFC0FC
:103FD0007FF00545B2404101828083C665009307AA
:103FE000000463E1D702974700009387272C03C39F
:103FF00007002A88614EC843854E81476396670053
:1040000089466DBF8D465DBF034F0502814693F51E
:10401000F60F63E8E501850793F7F70F1305C5026F
:10402000F1BFB388C6034C51C69583C8050063969B
:10403000080183A845006384D8018506C9BF83476A
:1040400005008A073E9758438947E314F7F8EFF0D5
:104050002FFA3335A0000605B5BF011126CA06CEDA
:1040600022CC97E4FF1F83C464BB85476387F400B9
:1040700095461306B004814529A02E8489ED854616
:10408000494613050005EFC0FFE40545F2406244D0
:10409000D244056182806C00EFF0AFD301C5914638
:1040A0004946D1BFB24713F7470001C789471CC033
:1040B000F1BF898B99C304C0D1BF23200400F9B795
:1040C00017E7FF1F034787B58547630BF702828019
:1040D00033073403DC40BA9798476316470103C59A
:1040E0000700EFF03FAA05041374F40FE36224FF06
:1040F000F2406244D2444249B249224A0561828078
:10410000011126CA974400009384441A22CC4AC85D
:104110004EC652C403C9040006CE01449309C0022E
:10412000054AE9B717E7FF1F034747AF8547630B0A
:10413000F702828033073403DC40BA97D843631612
:10414000470103C50700EFF07F8105041374F40FE6
:10415000E36224FFF2406244D2444249B249224A17
:1041600005618280011126CA9744000093840414DB
:1041700022CC4AC84EC652C403C9040006CE01442C
:104180009309C002054AE9B717E7FF1F034707A9CC
:104190008547630BF702828033073403DC40BA970C
:1041A000D8476316470103C50700EFF01FB10504A8
:1041B0001374F40FE36224FFF2406244D244424994
:1041C000B249224A05618280011126CA9744000043
:1041D0009384C40D22CC4AC84EC652C403C90400FD
:1041E00006CE01449309C002054AE9B717E7FF1F4D
:1041F0000347C7A28547630BF70282803307340366
:10420000DC40BA97984B6316470103C50700EFF0EF
:104210007FB205041374F40FE36224FFF24062449A
:10422000D2444249B249224A05618280011126CA1C
:10423000974400009384840722CC4AC84EC652C4D7
:1042400003C9040006CE01449309C002054AE9B738
:1042500097460000938686619745000083C57509DF
:104260008147368713F6F70F6364B60001458280F5
:1042700003D8060013861700C1066316A80092072C
:104280003305F7008280B287F1BF8E051747000023
:104290001307C7598D8117480000034888058147D7
:1042A000BA8613F6F70F6364060101458280034660
:1042B00087006319A60050436316B6009207338542
:1042C000F600828085074107E9BF8547238CF10806
:1042D000828083C78109A1C7011122CC06CE26CADC
:1042E0002E8485479DC5AA84EFF09FF6854715C1AA
:1042F0005C41034525004C003EC68357440023140F
:1043000091002305F1001C403EC2EFF0BFC9B33756
:10431000A000F2406244D2443E8505618280854718
:104320003E858280828051C1411122C406C626C2C8
:104330002E8495C5844185C40C4103455500EFF09A
:10434000DFF411CD035744008347A50063E9E7007C
:104350005C450547638AE7000D476381E704B24087
:104360002244924441018280835705001747000090
:10437000035707F8E3F5E7FE860717470000130722
:10438000A749BA9703D50700C167FD17E309F5FCF4
:10439000A2852244B24092444101C9A52244B240C0
:1043A0002685924441016FE07F958280C5A893F5F0
:1043B000F50F0DA24111814522C406C62A84EFF0F3
:1043C0001FA9120497E7FF1F93874792B240A29755
:1043D0002244094798C34101828097E7FF1F9387D2
:1043E000E79023A0070023A207002384070023955A
:1043F00007002396070023A8070023AA0700238CA1
:104400000700239D0700239E0700894723AEF1087C
:10441000828003A7C10989476311F708011122CCE3
:1044200026CA4AC84EC606CE17E4FF1F1304048CE2
:104430008144054989491C40638F27016383370301
:10444000410481C8F2406244D2444249B249056104
:1044500082808544CDB72685EFF0DFF52315040073
:10446000C5B78357A4008346C40025478507C20704
:10447000C1832315F400636FD700E373F7FC2315A2
:1044800004002685EFF01FF38347C4008507230649
:10449000F4007DB713073006CDB782800547636A05
:1044A000A70283A6C10989476395F602120597E71B
:1044B000FF1F9387A783AA9783C68700D8C398C393
:1044C0008506130700102384D70023950700239641
:1044D000E7008280854763E3A70289476390F5027E
:1044E000120597E7FF1F93876780AA9723A007000D
:1044F00023A207002395070023960700828041111D
:1045000006C6F327401C93F7070889C793070008DE
:1045100073B0471CF327001D81C70145EFF08FE6FC
:10452000F327F01C81C70145EFF0CFE5F327101DFD
:10453000F327401C93F7070489C79307000473B05F
:10454000471CF327201D81C70145EFF02FC1F3273A
:10455000401CA18B99C37370441CF327401C93F734
:10456000070289C79307000273B0471CF327401C5A
:10457000C18B81CB7370481CB240014541016FF083
:10458000CFF3B24041018280411106C6F327401E9D
:1045900093F7070889C79307000873B0471EF327EE
:1045A000001F81C70545EFF0EFDDF327F01E81C73F
:1045B0000545EFF02FDDF327101FF327401E93F77B
:1045C000070489C79307000473B0471EF327201F11
:1045D00081C70545EFF08FB8F327401EA18B99C323
:1045E0007370441EF327401E93F7070289C7930791
:1045F000000273B0471EF327401EC18B81CB73703E
:10460000481EB240054541016FF02FEBB240410119
:104610008280630F05221D71A6CACEC6D6C262DC97
:1046200066DA86CEA2CCCAC8D2C4DAC05EDE6AD848
:104630006ED6938A010A23A0AA00A30F0100814429
:10464000014C97D9FF1F9389696C97ECFF1F938CDE
:10465000EC809307C006B387F40203A70A008328FF
:10466000C70003562700B38BF80083C78B068DCF96
:10467000814617D7FF1F1307677981476391C71CCE
:1046800085476384F60023A2F10AF6406644D644C7
:104690004649B649264A964A064BF25B625CD25CB2
:1046A000425DB25D256182801304800233848402FE
:1046B00097E7FF1F938787A73E948547231004023F
:1046C000A301F402232A040063F9C41603D64B01A4
:1046D0002302F40203A78B0133053C01330E86014C
:1046E000131C0E0108C0135C0C016311F70283A7B1
:1046F000CB02F59B6396E70083A78B0385071CC855
:1047000083C58B02EF30B01123260400814E01498E
:10471000314D054AB38D890183A74B0581CB131712
:104720002900BA9703A3070063160304854763991A
:10473000FE0083D74B01E297139C0701135C0C0129
:1047400083A78B0185E703A70B0185476310F70259
:1047500003D64B010C4033858901330E8601131CAF
:104760000E0148C0135C0C01EF30F0158504C20443
:10477000C180C5B503570301832783023307A7030D
:10478000669799C783A68B01B5E28327C3005CC3F4
:10479000834763036392470383574303144013D64D
:1047A0003700B29603C606009D8BB317FA0093C775
:1047B000F7FFF18F2380F600034B7303631D4B0556
:1047C0002320B70181478326830313962700B296DF
:1047D000944299EE035503011306F10181453D2FE3
:1047E000DA8E05094209135909013DB75CCC4DB772
:1047F00003D546000C433EC6131635000CC2CC460A
:104800001AC43AC2EF009047B247224312478507C5
:1048100093F7F70F4DBF8327C30103574300835618
:104820000300104083254302032503021308F1010E
:1048300076C2EF00A079924E6DB785461DBD850703
:10484000C2072310070023010700C18311073DB5EC
:10485000828003A5410A828003A7410A854763033A
:10486000F71282808327C90103C7270011E3D1C053
:1048700033046C035E948347240263949700639E21
:10488000AC0323019402EF00505983278901D9EF2B
:10489000639BA40983473402639FA701032649054C
:1048A0008147B14517D5FF1F1305455B13972700B7
:1048B00032971443A1EEEF007056050C420C135CC6
:1048C0000C01B3075C0303270A000329C7003E99C4
:1048D00083448906C1D8B250225492540259F249F5
:1048E000624AD24A424BB24B224C924C024D456135
:1048F000828003D70700910793563700CE9683C472
:1049000006001D8BB3D4E4408588B9BF985601CB0F
:1049100003D70601D4463307B7022A9754C3850745
:10492000C207C18361B7A301040271B70347440200
:10493000930709046314A7019307C902639FA401A5
:10494000584C01CF9043232A040089466313D600B4
:1049500058C80547E391ECF609A8232A0400A30CE4
:104960000400E39AACF5E39894F5230C0400984313
:10497000232404008546759BE31FD7F2DC47850797
:104980001CC815BF79714ECE52CC56CA5AC85EC6E5
:1049900062C466C26AC006D622D426D24AD0AA8988
:1049A000AE8C014C138A010A930AC006130B8002D5
:1049B00097DBFF1F938B8B77054D21B703A7410A28
:1049C00085476314F70023000500828003A7410A8E
:1049D00085476311F70293D735009D893E95B3153E
:1049E000B7008347050093F5F50F6316E600CD8FFA
:1049F0002300F500828093C5F5FFED8FD5BF85C5F7
:104A00009C4195C3854763E0A702060597470000D0
:104A10009387078DAA9703D50700C167FD17630425
:104A2000F5006FF01F8B05458280411122C406C638
:104A30002A84EFF01FE28547631EF50083A7010A71
:104A400083D727006378F40022852244B2404101D5
:104A50006F00902BB240224441018280011122CC90
:104A60004EC606CE26CA4AC82A84AE89EFF07FDE3B
:104A700085476312F50883A7010A03D72700637CE3
:104A8000E406C44793078002B307F4021749000005
:104A90000329C9FC3E99EF0050388347290285CB92
:104AA0009307C006B307F4027D5783A50900BE949F
:104AB0009C406396E70283A5090003D644010325C1
:104AC0000900EF304060CA852685EF00F00E624491
:104AD000F240D2444249B24905616F0030348A073E
:104AE000173700001307877FBA979C43E9D72285C1
:104AF000829771F1E9BFF2406244D2444249B2491F
:104B0000056182801D7186CEA2CCA6CACAC8CEC657
:104B1000D2C4D6C2DAC05EDE62DC66DA6AD86ED68D
:104B2000EFF03FD38547630BF51CF6406644D6444F
:104B30004649B649264A964A064BF25B625CD25C0D
:104B4000425DB25D256182809C4C8DEF93078002AF
:104B5000B387F90203290B003E9983472902639327
:104B6000A703EF00902B814AB14D054CFC4891C73B
:104B700013972A00BA9780431DE485476307FA0E0E
:104B8000EF00D0298509C20993D909019307C0060E
:104B9000B387F90203A70B004447BE9403CA8406F7
:104BA000E3040AFA59B78357040183284B00B387FB
:104BB000B703B38CF80083473902639D87051C5403
:104BC000B1CB03A34C00630703047D1323A26C0045
:104BD0006312030403477403A30F01001C4C2DC789
:104BE000639A87011C5C9A97884311031DED8547E2
:104BF0002384FC005C547D57638BE7008A071737DA
:104C000000001307276DBA979C4391C382971C54E9
:104C100023A2FC0083C78C0063838701D287850AA7
:104C2000C20A93DA0A013E8A91B71C450357250050
:104C3000835605000C490326090048451308F10175
:104C40001AC66926324379BFE39687FB23848C0119
:104C50005C4C0357440083560400032609004C5063
:104C600008501308F1019D2671B79C48E39A47F15B
:104C700083A70B000144314AC847B7E74B689387C5
:104C800037A13385A44009853305F502854AFD5DCA
:104C900042054181EF00207D03D6440183250900B0
:104CA00003254900EF302042973600009386866244
:104CB000FC48E38707EC13172400BA979C43E38171
:104CC00007EC03D7070103294B00330747033A9941
:104CD0000347890063105703DC4B638BB7018A07D6
:104CE000B6979C4391C78297973600009386865E5D
:104CF000230409000504420441805DBF8149938B70
:104D0000010A174B0000130B6BD5054D41B55D71C2
:104D100086C6A2C4A6C2CAC04EDE52DC56DA5AD833
:104D20005ED662D466D26AD06ECEEFF09FB285476F
:104D3000630FF51AB640264496440649F259625A62
:104D4000D25A425BB25B225C925C025DF24D6161C1
:104D500082809C4C6381570305094209135909015C
:104D6000330B890383270A00C447DA9483C9840676
:104D7000E38109FEC1B7B307A90303A40C003E9465
:104D800083472402E39A57FD83474402938B04042C
:104D900063945701938BC402EF0030085C4499C3BD
:104DA000FD175CC45C4C99C75C4889C7FD175CC89B
:104DB00093B9170083A70B00054793F6D7FF6393BA
:104DC000E60E83270A0003474402DC47DA97138B79
:104DD00007046314D700138BC7021C4899C3FD173F
:104DE0001CC803270B008547631AF7028347840119
:104DF00095C71C44638A0710FD171CC463980910EB
:104E000091EF5C4481EF4A85EFF03FC283278B002E
:104E10001CC483478401FD17230CF4001C4891EF48
:104E20005C4481EF4A85EFF05FC083270B011CC80B
:104E30005C4C81C7584811E35CC8EF00207E268592
:104E400045252AC481452685A52D0144054BFD5BDA
:104E5000973D0000938D0D48FC48E38F07EE9316B5
:104E60002400B6979443E38906EEA247639C67014A
:104E7000DC4A638977018A07EE979C4381C736C66F
:104E80008297B246639A6901DC56638777018A0785
:104E9000EE979C4391C382971307140013140701E4
:104EA00041805DBFD9FB83270A0083464402DC476B
:104EB000DA97138B07046394E600138BC7028347CA
:104EC0008401A5DF1C44B1C7FD171CC46395090408
:104ED000ADF75C44BDF34A85EFF03FB583278B0007
:104EE0001CC483478401FD17230CF400B9B70149A2
:104EF000130CC006138A010A854A974C0000938C54
:104F0000ECB5130D8002A9BDE38D09EE231C04004E
:104F100031B7E38009FC231C040005B79307800424
:104F20003305F50283A6010ADC4A1307C00603A86D
:104F3000C600B14697480000938848B23E95835713
:104F400005043387E7023A98035705013307D70270
:104F500083A64800BA96130780023387E70283A727
:104F60000800BA9705476394E50283A84700C16526
:104F700083AE0600814723000600FD15054F8356CA
:104F800048011397070141836366D700828083A895
:104F90000700F1BF585DB3F6B7003383F8003697CA
:104FA000834607003387FE0003470700034E0300D4
:104FB000758F93C6F6FFB376DE00558F6304EE005F
:104FC0002300E6012300E300850755BF5D71A2C4FD
:104FD000A6C2CAC04EDE52DC62D486C63E8C56DA09
:104FE0005AD85ED666D26AD06ECE89472A8AB289EE
:104FF00036843A89C2846305FC0095476392F504C0
:105000000D804E9413563900D285228532C6EF208A
:10501000D07B3335A0002380A4002285264432466D
:10502000B64096440649F259D25A425BB25B225CC2
:10503000925C025DF24DD285625A61616F30A008C8
:1050400091476389F518A9476386F518A547014775
:1050500063EEB70005473317B70093773708E1EFE2
:1050600093778720F9EF1377471069EB93060002D7
:10507000B3862641FD57B3D7D7007D8F63150C0C3F
:10508000134474004A947D14934574000D80751484
:1050900033868900814611453308D600034808004D
:1050A000220C8506336C8801E398A6FE9D89B39691
:1050B000B70093C6F6FFB3F686013315B700C98E65
:1050C000338C8641333C8001238084010D457D581B
:1050D000B308A6002380D8007D15A182E31A05FF3E
:1050E000930600028D8E93F6F60F63F72603834531
:1050F000F6FFB3D7D70093C7F7FFB356D70003C760
:105100000400ED8FD58FBA866383F5008546558FF1
:105110002380E400A30FF6FEB640264496440649D9
:10512000F259625AD25A425BB25B225C925C025DD7
:10513000F24D61618280034705000DBF03570500F2
:1051400035B7184125B78546E318DCFC1356340003
:105150004E968D4681457D553308D600034808009C
:10516000A205FD16B365B800E398A6FE1D88B396A8
:10517000870093C6F6FFED8E33158700C98EB38581
:10518000B640B335B0002380B400114581453308E3
:10519000B6002300D8008505A182E39AA5FE9306F8
:1051A0000002818E93F6F60FE3F826F7834546005A
:1051B000B3D7D70093C7F7FF3357D700ED8FD98FF9
:1051C00005476394F50003C704002380E40023022D
:1051D000F60099B7832B0A00032B4A00130600043C
:1051E000330626417D55FD55EF304002AA8A2E8AAE
:1051F000B3FBAB00337BBB0063140C0E1344740091
:105200004A947D14934C74000D8065144E94814D26
:105210008149A147B306840183C6060013D78901DB
:10522000A20DA209050CB3E93601B36DB701E31372
:10523000FCFE93FC7C0066865685D285EF20907F2D
:105240001345F5FF93C5F5FF337C350133FDB501FB
:1052500066865E85DA85EF20F07D3365AC00B36548
:10526000BD00B3C9A900B3CDBD00B3E9B901B339DD
:105270003001238034019D477D57B306F40023801D
:10528000A600FD17939685012181558DA181E39696
:10529000E7FE13060004330696411376F60FE37D0E
:1052A00026E75685D28532C68349F4FFEF20107673
:1052B00032461345F5FF33793501DA855E85EF20F7
:1052C000F0743365A90083C704006394A9003E8786
:1052D00091C10547D98F2380F400A30FA4FE2DBDF3
:1052E0008547E31BFCE2135D34004E9D9D478149D9
:1052F000814D7D573306FD000346060093D6890194
:10530000A20DA209FD17B3693601B3EDB601E3930F
:10531000E7FE1D8822865685D285EF20B07193C5A1
:10532000F5FF9347F5FFB3FCB50122865E85DA856C
:1053300033FC3701EF201070B367AC00B3E5BC005D
:10534000B3C9F900B3CDBD00B3E9B901B339300138
:10535000238034010147A1463306ED002300F60007
:10536000050713968501A183D18FA181E316D7FE8E
:1053700013060004018E1376F60FE37F26D95685B7
:10538000D28532C603498D00EF205068324613455E
:10539000F5FF33742501DA855E85EF203067418D96
:1053A000631AA90081E983C704002380F400230461
:1053B000AD009DB38547D5BF797122D426D24AD09E
:1053C0004ECE52CC56CA5AC85EC606D6AA842E897C
:1053D0000144173A0000130A6A68B14A85497D5BA7
:1053E000973B0000938B0BEFFC4813172400BA97F0
:1053F0009C4381EFB250225492540259F249624ABE
:10540000D24A424BB24B4561828003C76703832671
:105410004A0003D607010DC36310370503D74703BE
:105420008325090013553700AA9583C505001D8BF8
:105430003397E9006D8F0DC33307560336979457A2
:1054400091C254C3944889EEDC4B638767018A0795
:10545000DE979C4391C3829705044204418069B75B
:1054600023043701D5BF0A0597D7FF1F9387079AF3
:10547000AA9723810700239007008280AA87E1462C
:1054800013973700B387D702173600000326865DCF
:105490003A9603A7010A2E850C4F104201111308FA
:1054A000F10006CEBE959C4503D7250083D60500A6
:1054B0008C49A3070100EFF07FB1F24005618280C3
:1054C0007C499C4389CF03D70701B1469737000039
:1054D00083A707593307D702BA972384B70082807E
:1054E00015C17C4901459C4399CF03D70701B146BB
:1054F0009737000083A7C7563307D702BA9703C56B
:105500008700828001458280130780023307E5020D
:10551000797126D29734000083A444544AD006D629
:1055200022D44ECEBA9403A9C4006316090E930682
:10553000C006B307D5029389010A03A709008C406E
:1055400040477D573E945C406397E7029C40384C4F
:105550003EC48357440105EF0355C4002C002316B5
:10556000F100EFF0CFC951E5585085476319F706B0
:1055700001470546B1A88A07173700001307C7D5AA
:10558000BA979C43E1D7829771F1094999A883D6CC
:10559000040203574700B6970D83998FC207C18352
:1055A00065BF83C667036392C60283D747039440EF
:1055B00093D53700AE9683C506009D8BB317F600D2
:1055C00093C7F7FFED8F2380F6000507420741835D
:1055D0007C4891C793162700B6979C43F9F31C505B
:1055E000DCC4B25022549254F2494A8502594561B2
:1055F000828083A709000949C847B7E74B689387AA
:1056000037A13305A44009853305F50242054181E0
:10561000EFF07FE5E9B70549E9B782808280F1477D
:105620003305F50297D7FF1F938747E2AA9703A791
:10563000C75B6368B70003A7C75B0D8F23AEE75A4C
:10564000828023AE075A82801317350097470000E7
:10565000938747917971BA974AD003A90700CC4341
:1056600026D2AA844A8522D406D6EF1000372A848F
:105670002DED1305007DEF10E07397E7FF1F2383E7
:10568000074EFD57850441460C084A853ECA3ECC6C
:105690003ECE23089100A308010023190100EF105A
:1056A000E0392A8439E11305007DEF10A0701D4612
:1056B0009305F00F1305910097E7FF1F2384074A16
:1056C000EF20F0159307A0FA21462C0013050901DD
:1056D0002304F100EF1080362A841305007DEF10BB
:1056E000606D97E7FF1F238F0746B2502285225433
:1056F000925402594561828041C3B7474400938761
:105700008754B297AE979E0693F6F60FAA97B69770
:10571000A301D7009356860013088004A304D70082
:1057200093560601230007012305D70013085004F0
:1057300093D68700A30007012302A70013084004A3
:1057400021812303B7002304C700A18161822306BE
:10575000F700A306D70093D60701E183A302A700B1
:1057600023010701A303B700A305C7002307D70040
:10577000A307F7000145828005458280AA87054579
:10578000CDCBC5C95DC6D5C64DC783C807001308B4
:1057900080046390080B83C8170013085004639AB1
:1057A000080983C82700130840046394080903C547
:1057B00037001D812300A70003C7570003C547001A
:1057C0002207498F2390E50003C7770003C56700D0
:1057D0002207498F2310E60003C6970003C5870000
:1057E0002206498E03C5A7004205518D03C6B700A6
:1057F0006206498E03D5050090C2B7464400329533
:1058000093868654369583C63700369583C6D7006F
:105810003A9503C7C700A206D98E03C7E70083C71E
:10582000F7004207558FE207D98F1D8D3335A00051
:10583000828082809377750095EB011122CC26CA75
:105840002A84AE841D469305F00F1305910006CE01
:10585000EF20E07C2C002285214623049100EF10EC
:10586000E01DF2406244D244056182800545828099
:105870009377750095E7011122CC06CE2E848547DB
:1058800099C921462C00EF00B07CAA8709E503479F
:1058900081002300E400F24062443E85056182807D
:1058A00085473E8582809377750091C70D810505F8
:1058B0000E054205418182809737000083D7876BB0
:1058C0002A87630DF500C1679736000083D6066B03
:1058D0001385F7FF6315D700054582800145828057
:1058E000411122C406C626C24AC02A8439E132893F
:1058F00029C2B6849DCE2E85EFF0FFFA97D7FF1F01
:105900009387C7B41307050283A6C75B4207418389
:1059100063E1E60203A7875A2320E90083A7475AD9
:10592000898F9CC0B24022852244924402494101A1
:1059300082800544C5BF9307100363E1A702F147C6
:105940003305F50297D7FF1F938747B0AA97CCD7A7
:10595000D0DB410690DB94DF0145828005458280E3
:1059600017E7FF1F0347871D97E7FF1F938707AEC2
:1059700009CB03A7C76E11C783A7C76E1375F50FB1
:105980008287828015ED854763ECB70297D7FF1FAA
:105990002386B706173700001307C75C8E052E97BE
:1059A0001443584397D7FF1F938747021386060275
:1059B00090D7BA96D4D30117D8DF0947D8DB8280B5
:1059C000054582805D71CAC07149330925038E0582
:1059D0009737000093870759AE9752DC03AA070058
:1059E000DC43A2C417D4FF1F130444A6A6C24EDE94
:1059F00056DA86C65AD85ED693040A022299232420
:105A0000995A3E9AC16AAA892322495BFD1A63FA10
:105A1000440341460C082685EF0090631DE10347CF
:105A2000110183470101F98F03472101F98F130702
:105A3000F00F639FE704F147B387F902A29723A40D
:105A4000975AF147B387F902A29703A7475A636BA6
:105A5000970C23A4975AF147B389F9024E94032770
:105A6000445A8327845A6364F70C8327445A0327D4
:105A7000845A998F232EF45AB640264496440649F8
:105A8000F259625AD25A425BB25B0145616182802F
:105A90001307610074001306A1002C000808EFF042
:105AA000FFCD25E9138B04010546930571005A8546
:105AB000EF00105A39ED834771001307A00A854B98
:105AC0006386E70093B71700939B17000355810087
:105AD000EFF09FDE3247630855039387FBFF85464F
